{
  "_format": "hh-sol-artifact-1",
  "contractName": "ERC1155Factory",
  "sourceName": "contracts/ERC1155Factory.sol",
  "abi": [
    {
      "inputs": [],
      "stateMutability": "nonpayable",
      "type": "constructor"
    },
    {
      "anonymous": false,
      "inputs": [
        {
          "indexed": true,
          "internalType": "address",
          "name": "_from",
          "type": "address"
        },
        {
          "indexed": true,
          "internalType": "address",
          "name": "_mewTokenAddr",
          "type": "address"
        }
      ],
      "name": "NewTokenCreate",
      "type": "event"
    },
    {
      "inputs": [
        {
          "internalType": "string",
          "name": "_name",
          "type": "string"
        },
        {
          "internalType": "string",
          "name": "_symbol",
          "type": "string"
        }
      ],
      "name": "createToken",
      "outputs": [
        {
          "internalType": "address",
          "name": "_contractAddr",
          "type": "address"
        }
      ],
      "stateMutability": "nonpayable",
      "type": "function"
    },
    {
      "inputs": [],
      "name": "erc1155nft",
      "outputs": [
        {
          "internalType": "contract ERC1155NFT",
          "name": "",
          "type": "address"
        }
      ],
      "stateMutability": "view",
      "type": "function"
    }
  ],
  "bytecode": "0x608060405234801561001057600080fd5b506136cd806100206000396000f3fe60806040523480156200001157600080fd5b50600436106200003a5760003560e01c80632f2f2d56146200003f578063b4c8fda21462000075575b600080fd5b6200005d6004803603810190620000579190620002fe565b62000097565b6040516200006c9190620003d4565b60405180910390f35b6200007f62000217565b6040516200008e9190620003f1565b60405180910390f35b60008282604051620000a9906200023b565b620000b69291906200040e565b604051809103906000f080158015620000d3573d6000803e3d6000fd5b506000806101000a81548173ffffffffffffffffffffffffffffffffffffffff021916908373ffffffffffffffffffffffffffffffffffffffff16021790555060008054906101000a900473ffffffffffffffffffffffffffffffffffffffff1673ffffffffffffffffffffffffffffffffffffffff16633bc5de306040518163ffffffff1660e01b815260040160206040518083038186803b1580156200017a57600080fd5b505afa1580156200018f573d6000803e3d6000fd5b505050506040513d601f19601f82011682018060405250810190620001b59190620002d2565b90508073ffffffffffffffffffffffffffffffffffffffff163373ffffffffffffffffffffffffffffffffffffffff167f66d3446fa9edd347f6a5f5ab40156ebd68eca07732c14c77f6f37a009490a6ab60405160405180910390a392915050565b60008054906101000a900473ffffffffffffffffffffffffffffffffffffffff1681565b6130a280620005f683390190565b6000620002606200025a8462000472565b62000449565b9050828152602081018484840111156200027957600080fd5b6200028684828562000520565b509392505050565b6000815190506200029f81620005db565b92915050565b600082601f830112620002b757600080fd5b8135620002c984826020860162000249565b91505092915050565b600060208284031215620002e557600080fd5b6000620002f5848285016200028e565b91505092915050565b600080604083850312156200031257600080fd5b600083013567ffffffffffffffff8111156200032d57600080fd5b6200033b85828601620002a5565b925050602083013567ffffffffffffffff8111156200035957600080fd5b6200036785828601620002a5565b9150509250929050565b6200037c81620004c4565b82525050565b6200038d81620004f8565b82525050565b6000620003a082620004a8565b620003ac8185620004b3565b9350620003be8185602086016200052f565b620003c981620005ca565b840191505092915050565b6000602082019050620003eb600083018462000371565b92915050565b600060208201905062000408600083018462000382565b92915050565b600060408201905081810360008301526200042a818562000393565b9050818103602083015262000440818462000393565b90509392505050565b60006200045562000468565b905062000463828262000565565b919050565b6000604051905090565b600067ffffffffffffffff82111562000490576200048f6200059b565b5b6200049b82620005ca565b9050602081019050919050565b600081519050919050565b600082825260208201905092915050565b6000620004d182620004d8565b9050919050565b600073ffffffffffffffffffffffffffffffffffffffff82169050919050565b600062000505826200050c565b9050919050565b60006200051982620004d8565b9050919050565b82818337600083830152505050565b60005b838110156200054f57808201518184015260208101905062000532565b838111156200055f576000848401525b50505050565b6200057082620005ca565b810181811067ffffffffffffffff821117156200059257620005916200059b565b5b80604052505050565b7f4e487b7100000000000000000000000000000000000000000000000000000000600052604160045260246000fd5b6000601f19601f8301169050919050565b620005e681620004c4565b8114620005f257600080fd5b5056fe608060405260006005553480156200001657600080fd5b50604051620030a2380380620030a283398181016040528101906200003c9190620001d6565b604051806020016040528060008152506200005d816200009860201b60201c565b50816003908051906020019062000076929190620000b4565b5080600490805190602001906200008f929190620000b4565b505050620003b9565b8060029080519060200190620000b0929190620000b4565b5050565b828054620000c290620002de565b90600052602060002090601f016020900481019282620000e6576000855562000132565b82601f106200010157805160ff191683800117855562000132565b8280016001018555821562000132579182015b828111156200013157825182559160200191906001019062000114565b5b50905062000141919062000145565b5090565b5b808211156200016057600081600090555060010162000146565b5090565b60006200017b620001758462000272565b62000249565b9050828152602081018484840111156200019457600080fd5b620001a1848285620002a8565b509392505050565b600082601f830112620001bb57600080fd5b8151620001cd84826020860162000164565b91505092915050565b60008060408385031215620001ea57600080fd5b600083015167ffffffffffffffff8111156200020557600080fd5b6200021385828601620001a9565b925050602083015167ffffffffffffffff8111156200023157600080fd5b6200023f85828601620001a9565b9150509250929050565b60006200025562000268565b905062000263828262000314565b919050565b6000604051905090565b600067ffffffffffffffff82111562000290576200028f62000379565b5b6200029b82620003a8565b9050602081019050919050565b60005b83811015620002c8578082015181840152602081019050620002ab565b83811115620002d8576000848401525b50505050565b60006002820490506001821680620002f757607f821691505b602082108114156200030e576200030d6200034a565b5b50919050565b6200031f82620003a8565b810181811067ffffffffffffffff8211171562000341576200034062000379565b5b80604052505050565b7f4e487b7100000000000000000000000000000000000000000000000000000000600052602260045260246000fd5b7f4e487b7100000000000000000000000000000000000000000000000000000000600052604160045260246000fd5b6000601f19601f8301169050919050565b612cd980620003c96000396000f3fe608060405234801561001057600080fd5b50600436106100ce5760003560e01c80633bc5de301161008c578063a22cb46511610066578063a22cb46514610227578063d0def52114610243578063e985e9c51461025f578063f242432a1461028f576100ce565b80633bc5de30146101bb5780634e1273f4146101d957806395d89b4114610209576100ce565b8062fdd58e146100d357806301ffc9a71461010357806306fdde03146101335780630e89341c146101515780631c75cfb4146101815780632eb2c2d61461019f575b600080fd5b6100ed60048036038101906100e89190611d98565b6102ab565b6040516100fa9190612433565b60405180910390f35b61011d60048036038101906101189190611e40565b610374565b60405161012a9190612296565b60405180910390f35b61013b610456565b60405161014891906122b1565b60405180910390f35b61016b60048036038101906101669190611e92565b6104e4565b60405161017891906122b1565b60405180910390f35b610189610578565b6040516101969190612433565b60405180910390f35b6101b960048036038101906101b49190611bba565b61057e565b005b6101c361061f565b6040516101d09190612160565b60405180910390f35b6101f360048036038101906101ee9190611dd4565b610627565b604051610200919061223d565b60405180910390f35b6102116107d8565b60405161021e91906122b1565b60405180910390f35b610241600480360381019061023c9190611d08565b610866565b005b61025d60048036038101906102589190611d44565b61087c565b005b61027960048036038101906102749190611b7e565b6108e0565b6040516102869190612296565b60405180910390f35b6102a960048036038101906102a49190611c79565b610974565b005b60008073ffffffffffffffffffffffffffffffffffffffff168373ffffffffffffffffffffffffffffffffffffffff16141561031c576040517f08c379a000000000000000000000000000000000000000000000000000000000815260040161031390612313565b60405180910390fd5b60008083815260200190815260200160002060008473ffffffffffffffffffffffffffffffffffffffff1673ffffffffffffffffffffffffffffffffffffffff16815260200190815260200160002054905092915050565b60007fd9b67a26000000000000000000000000000000000000000000000000000000007bffffffffffffffffffffffffffffffffffffffffffffffffffffffff1916827bffffffffffffffffffffffffffffffffffffffffffffffffffffffff1916148061043f57507f0e89341c000000000000000000000000000000000000000000000000000000007bffffffffffffffffffffffffffffffffffffffffffffffffffffffff1916827bffffffffffffffffffffffffffffffffffffffffffffffffffffffff1916145b8061044f575061044e82610a15565b5b9050919050565b60038054610463906126d3565b80601f016020809104026020016040519081016040528092919081815260200182805461048f906126d3565b80156104dc5780601f106104b1576101008083540402835291602001916104dc565b820191906000526020600020905b8154815290600101906020018083116104bf57829003601f168201915b505050505081565b6060600280546104f3906126d3565b80601f016020809104026020016040519081016040528092919081815260200182805461051f906126d3565b801561056c5780601f106105415761010080835404028352916020019161056c565b820191906000526020600020905b81548152906001019060200180831161054f57829003601f168201915b50505050509050919050565b60055481565b610586610a7f565b73ffffffffffffffffffffffffffffffffffffffff168573ffffffffffffffffffffffffffffffffffffffff1614806105cc57506105cb856105c6610a7f565b6108e0565b5b61060b576040517f08c379a000000000000000000000000000000000000000000000000000000000815260040161060290612373565b60405180910390fd5b6106188585858585610a87565b5050505050565b600030905090565b6060815183511461066d576040517f08c379a0000000000000000000000000000000000000000000000000000000008152600401610664906123d3565b60405180910390fd5b6000835167ffffffffffffffff8111156106b0577f4e487b7100000000000000000000000000000000000000000000000000000000600052604160045260246000fd5b6040519080825280602002602001820160405280156106de5781602001602082028036833780820191505090505b50905060005b84518110156107cd57610777858281518110610729577f4e487b7100000000000000000000000000000000000000000000000000000000600052603260045260246000fd5b602002602001015185838151811061076a577f4e487b7100000000000000000000000000000000000000000000000000000000600052603260045260246000fd5b60200260200101516102ab565b8282815181106107b0577f4e487b7100000000000000000000000000000000000000000000000000000000600052603260045260246000fd5b602002602001018181525050806107c690612736565b90506106e4565b508091505092915050565b600480546107e5906126d3565b80601f0160208091040260200160405190810160405280929190818152602001828054610811906126d3565b801561085e5780601f106108335761010080835404028352916020019161085e565b820191906000526020600020905b81548152906001019060200180831161084157829003601f168201915b505050505081565b610878610871610a7f565b8383610df5565b5050565b8060066000600554815260200190815260200160002090805190602001906108a5929190611876565b506108c482600554600160405180602001604052806000815250610f62565b600560008154809291906108d790612736565b91905055505050565b6000600160008473ffffffffffffffffffffffffffffffffffffffff1673ffffffffffffffffffffffffffffffffffffffff16815260200190815260200160002060008373ffffffffffffffffffffffffffffffffffffffff1673ffffffffffffffffffffffffffffffffffffffff16815260200190815260200160002060009054906101000a900460ff16905092915050565b61097c610a7f565b73ffffffffffffffffffffffffffffffffffffffff168573ffffffffffffffffffffffffffffffffffffffff1614806109c257506109c1856109bc610a7f565b6108e0565b5b610a01576040517f08c379a00000000000000000000000000000000000000000000000000000000081526004016109f890612333565b60405180910390fd5b610a0e8585858585611113565b5050505050565b60007f01ffc9a7000000000000000000000000000000000000000000000000000000007bffffffffffffffffffffffffffffffffffffffffffffffffffffffff1916827bffffffffffffffffffffffffffffffffffffffffffffffffffffffff1916149050919050565b600033905090565b8151835114610acb576040517f08c379a0000000000000000000000000000000000000000000000000000000008152600401610ac2906123f3565b60405180910390fd5b600073ffffffffffffffffffffffffffffffffffffffff168473ffffffffffffffffffffffffffffffffffffffff161415610b3b576040517f08c379a0000000000000000000000000000000000000000000000000000000008152600401610b3290612353565b60405180910390fd5b6000610b45610a7f565b9050610b558187878787876113af565b60005b8451811015610d52576000858281518110610b9c577f4e487b7100000000000000000000000000000000000000000000000000000000600052603260045260246000fd5b602002602001015190506000858381518110610be1577f4e487b7100000000000000000000000000000000000000000000000000000000600052603260045260246000fd5b60200260200101519050600080600084815260200190815260200160002060008b73ffffffffffffffffffffffffffffffffffffffff1673ffffffffffffffffffffffffffffffffffffffff16815260200190815260200160002054905081811015610c82576040517f08c379a0000000000000000000000000000000000000000000000000000000008152600401610c7990612393565b60405180910390fd5b81810360008085815260200190815260200160002060008c73ffffffffffffffffffffffffffffffffffffffff1673ffffffffffffffffffffffffffffffffffffffff168152602001908152602001600020819055508160008085815260200190815260200160002060008b73ffffffffffffffffffffffffffffffffffffffff1673ffffffffffffffffffffffffffffffffffffffff1681526020019081526020016000206000828254610d3791906125c7565b9250508190555050505080610d4b90612736565b9050610b58565b508473ffffffffffffffffffffffffffffffffffffffff168673ffffffffffffffffffffffffffffffffffffffff168273ffffffffffffffffffffffffffffffffffffffff167f4a39dc06d4c0dbc64b70af90fd698a233a518aa5d07e595d983b8c0526c8f7fb8787604051610dc992919061225f565b60405180910390a4610ddf8187878787876113b7565b610ded8187878787876113bf565b505050505050565b8173ffffffffffffffffffffffffffffffffffffffff168373ffffffffffffffffffffffffffffffffffffffff161415610e64576040517f08c379a0000000000000000000000000000000000000000000000000000000008152600401610e5b906123b3565b60405180910390fd5b80600160008573ffffffffffffffffffffffffffffffffffffffff1673ffffffffffffffffffffffffffffffffffffffff16815260200190815260200160002060008473ffffffffffffffffffffffffffffffffffffffff1673ffffffffffffffffffffffffffffffffffffffff16815260200190815260200160002060006101000a81548160ff0219169083151502179055508173ffffffffffffffffffffffffffffffffffffffff168373ffffffffffffffffffffffffffffffffffffffff167f17307eab39ab6107e8899845ad3d59bd9653f200f220920489ca2b5937696c3183604051610f559190612296565b60405180910390a3505050565b600073ffffffffffffffffffffffffffffffffffffffff168473ffffffffffffffffffffffffffffffffffffffff161415610fd2576040517f08c379a0000000000000000000000000000000000000000000000000000000008152600401610fc990612413565b60405180910390fd5b6000610fdc610a7f565b90506000610fe9856115a6565b90506000610ff6856115a6565b9050611007836000898585896113af565b8460008088815260200190815260200160002060008973ffffffffffffffffffffffffffffffffffffffff1673ffffffffffffffffffffffffffffffffffffffff168152602001908152602001600020600082825461106691906125c7565b925050819055508673ffffffffffffffffffffffffffffffffffffffff16600073ffffffffffffffffffffffffffffffffffffffff168473ffffffffffffffffffffffffffffffffffffffff167fc3d58168c5ae7397731d063d5bbf3d657854427343f4c083240f7aacaa2d0f6289896040516110e492919061244e565b60405180910390a46110fb836000898585896113b7565b61110a8360008989898961166c565b50505050505050565b600073ffffffffffffffffffffffffffffffffffffffff168473ffffffffffffffffffffffffffffffffffffffff161415611183576040517f08c379a000000000000000000000000000000000000000000000000000000000815260040161117a90612353565b60405180910390fd5b600061118d610a7f565b9050600061119a856115a6565b905060006111a7856115a6565b90506111b78389898585896113af565b600080600088815260200190815260200160002060008a73ffffffffffffffffffffffffffffffffffffffff1673ffffffffffffffffffffffffffffffffffffffff1681526020019081526020016000205490508581101561124e576040517f08c379a000000000000000000000000000000000000000000000000000000000815260040161124590612393565b60405180910390fd5b85810360008089815260200190815260200160002060008b73ffffffffffffffffffffffffffffffffffffffff1673ffffffffffffffffffffffffffffffffffffffff168152602001908152602001600020819055508560008089815260200190815260200160002060008a73ffffffffffffffffffffffffffffffffffffffff1673ffffffffffffffffffffffffffffffffffffffff168152602001908152602001600020600082825461130391906125c7565b925050819055508773ffffffffffffffffffffffffffffffffffffffff168973ffffffffffffffffffffffffffffffffffffffff168573ffffffffffffffffffffffffffffffffffffffff167fc3d58168c5ae7397731d063d5bbf3d657854427343f4c083240f7aacaa2d0f628a8a60405161138092919061244e565b60405180910390a4611396848a8a86868a6113b7565b6113a4848a8a8a8a8a61166c565b505050505050505050565b505050505050565b505050505050565b6113de8473ffffffffffffffffffffffffffffffffffffffff16611853565b1561159e578373ffffffffffffffffffffffffffffffffffffffff1663bc197c8187878686866040518663ffffffff1660e01b815260040161142495949392919061217b565b602060405180830381600087803b15801561143e57600080fd5b505af192505050801561146f57506040513d601f19601f8201168201806040525081019061146c9190611e69565b60015b6115155761147b61280c565b806308c379a014156114d85750611490612bb1565b8061149b57506114da565b806040517f08c379a00000000000000000000000000000000000000000000000000000000081526004016114cf91906122b1565b60405180910390fd5b505b6040517f08c379a000000000000000000000000000000000000000000000000000000000815260040161150c906122d3565b60405180910390fd5b63bc197c8160e01b7bffffffffffffffffffffffffffffffffffffffffffffffffffffffff1916817bffffffffffffffffffffffffffffffffffffffffffffffffffffffff19161461159c576040517f08c379a0000000000000000000000000000000000000000000000000000000008152600401611593906122f3565b60405180910390fd5b505b505050505050565b60606000600167ffffffffffffffff8111156115eb577f4e487b7100000000000000000000000000000000000000000000000000000000600052604160045260246000fd5b6040519080825280602002602001820160405280156116195781602001602082028036833780820191505090505b5090508281600081518110611657577f4e487b7100000000000000000000000000000000000000000000000000000000600052603260045260246000fd5b60200260200101818152505080915050919050565b61168b8473ffffffffffffffffffffffffffffffffffffffff16611853565b1561184b578373ffffffffffffffffffffffffffffffffffffffff1663f23a6e6187878686866040518663ffffffff1660e01b81526004016116d19594939291906121e3565b602060405180830381600087803b1580156116eb57600080fd5b505af192505050801561171c57506040513d601f19601f820116820180604052508101906117199190611e69565b60015b6117c25761172861280c565b806308c379a01415611785575061173d612bb1565b806117485750611787565b806040517f08c379a000000000000000000000000000000000000000000000000000000000815260040161177c91906122b1565b60405180910390fd5b505b6040517f08c379a00000000000000000000000000000000000000000000000000000000081526004016117b9906122d3565b60405180910390fd5b63f23a6e6160e01b7bffffffffffffffffffffffffffffffffffffffffffffffffffffffff1916817bffffffffffffffffffffffffffffffffffffffffffffffffffffffff191614611849576040517f08c379a0000000000000000000000000000000000000000000000000000000008152600401611840906122f3565b60405180910390fd5b505b505050505050565b6000808273ffffffffffffffffffffffffffffffffffffffff163b119050919050565b828054611882906126d3565b90600052602060002090601f0160209004810192826118a457600085556118eb565b82601f106118bd57805160ff19168380011785556118eb565b828001600101855582156118eb579182015b828111156118ea5782518255916020019190600101906118cf565b5b5090506118f891906118fc565b5090565b5b808211156119155760008160009055506001016118fd565b5090565b600061192c6119278461249c565b612477565b9050808382526020820190508285602086028201111561194b57600080fd5b60005b8581101561197b57816119618882611a6d565b84526020840193506020830192505060018101905061194e565b5050509392505050565b6000611998611993846124c8565b612477565b905080838252602082019050828560208602820111156119b757600080fd5b60005b858110156119e757816119cd8882611b69565b8452602084019350602083019250506001810190506119ba565b5050509392505050565b6000611a046119ff846124f4565b612477565b905082815260208101848484011115611a1c57600080fd5b611a27848285612691565b509392505050565b6000611a42611a3d84612525565b612477565b905082815260208101848484011115611a5a57600080fd5b611a65848285612691565b509392505050565b600081359050611a7c81612c47565b92915050565b600082601f830112611a9357600080fd5b8135611aa3848260208601611919565b91505092915050565b600082601f830112611abd57600080fd5b8135611acd848260208601611985565b91505092915050565b600081359050611ae581612c5e565b92915050565b600081359050611afa81612c75565b92915050565b600081519050611b0f81612c75565b92915050565b600082601f830112611b2657600080fd5b8135611b368482602086016119f1565b91505092915050565b600082601f830112611b5057600080fd5b8135611b60848260208601611a2f565b91505092915050565b600081359050611b7881612c8c565b92915050565b60008060408385031215611b9157600080fd5b6000611b9f85828601611a6d565b9250506020611bb085828601611a6d565b9150509250929050565b600080600080600060a08688031215611bd257600080fd5b6000611be088828901611a6d565b9550506020611bf188828901611a6d565b945050604086013567ffffffffffffffff811115611c0e57600080fd5b611c1a88828901611aac565b935050606086013567ffffffffffffffff811115611c3757600080fd5b611c4388828901611aac565b925050608086013567ffffffffffffffff811115611c6057600080fd5b611c6c88828901611b15565b9150509295509295909350565b600080600080600060a08688031215611c9157600080fd5b6000611c9f88828901611a6d565b9550506020611cb088828901611a6d565b9450506040611cc188828901611b69565b9350506060611cd288828901611b69565b925050608086013567ffffffffffffffff811115611cef57600080fd5b611cfb88828901611b15565b9150509295509295909350565b60008060408385031215611d1b57600080fd5b6000611d2985828601611a6d565b9250506020611d3a85828601611ad6565b9150509250929050565b60008060408385031215611d5757600080fd5b6000611d6585828601611a6d565b925050602083013567ffffffffffffffff811115611d8257600080fd5b611d8e85828601611b3f565b9150509250929050565b60008060408385031215611dab57600080fd5b6000611db985828601611a6d565b9250506020611dca85828601611b69565b9150509250929050565b60008060408385031215611de757600080fd5b600083013567ffffffffffffffff811115611e0157600080fd5b611e0d85828601611a82565b925050602083013567ffffffffffffffff811115611e2a57600080fd5b611e3685828601611aac565b9150509250929050565b600060208284031215611e5257600080fd5b6000611e6084828501611aeb565b91505092915050565b600060208284031215611e7b57600080fd5b6000611e8984828501611b00565b91505092915050565b600060208284031215611ea457600080fd5b6000611eb284828501611b69565b91505092915050565b6000611ec78383612142565b60208301905092915050565b611edc8161261d565b82525050565b6000611eed82612566565b611ef78185612594565b9350611f0283612556565b8060005b83811015611f33578151611f1a8882611ebb565b9750611f2583612587565b925050600181019050611f06565b5085935050505092915050565b611f498161262f565b82525050565b6000611f5a82612571565b611f6481856125a5565b9350611f748185602086016126a0565b611f7d8161282e565b840191505092915050565b6000611f938261257c565b611f9d81856125b6565b9350611fad8185602086016126a0565b611fb68161282e565b840191505092915050565b6000611fce6034836125b6565b9150611fd98261284c565b604082019050919050565b6000611ff16028836125b6565b9150611ffc8261289b565b604082019050919050565b6000612014602b836125b6565b915061201f826128ea565b604082019050919050565b60006120376029836125b6565b915061204282612939565b604082019050919050565b600061205a6025836125b6565b915061206582612988565b604082019050919050565b600061207d6032836125b6565b9150612088826129d7565b604082019050919050565b60006120a0602a836125b6565b91506120ab82612a26565b604082019050919050565b60006120c36029836125b6565b91506120ce82612a75565b604082019050919050565b60006120e66029836125b6565b91506120f182612ac4565b604082019050919050565b60006121096028836125b6565b915061211482612b13565b604082019050919050565b600061212c6021836125b6565b915061213782612b62565b604082019050919050565b61214b81612687565b82525050565b61215a81612687565b82525050565b60006020820190506121756000830184611ed3565b92915050565b600060a0820190506121906000830188611ed3565b61219d6020830187611ed3565b81810360408301526121af8186611ee2565b905081810360608301526121c38185611ee2565b905081810360808301526121d78184611f4f565b90509695505050505050565b600060a0820190506121f86000830188611ed3565b6122056020830187611ed3565b6122126040830186612151565b61221f6060830185612151565b81810360808301526122318184611f4f565b90509695505050505050565b600060208201905081810360008301526122578184611ee2565b905092915050565b600060408201905081810360008301526122798185611ee2565b9050818103602083015261228d8184611ee2565b90509392505050565b60006020820190506122ab6000830184611f40565b92915050565b600060208201905081810360008301526122cb8184611f88565b905092915050565b600060208201905081810360008301526122ec81611fc1565b9050919050565b6000602082019050818103600083015261230c81611fe4565b9050919050565b6000602082019050818103600083015261232c81612007565b9050919050565b6000602082019050818103600083015261234c8161202a565b9050919050565b6000602082019050818103600083015261236c8161204d565b9050919050565b6000602082019050818103600083015261238c81612070565b9050919050565b600060208201905081810360008301526123ac81612093565b9050919050565b600060208201905081810360008301526123cc816120b6565b9050919050565b600060208201905081810360008301526123ec816120d9565b9050919050565b6000602082019050818103600083015261240c816120fc565b9050919050565b6000602082019050818103600083015261242c8161211f565b9050919050565b60006020820190506124486000830184612151565b92915050565b60006040820190506124636000830185612151565b6124706020830184612151565b9392505050565b6000612481612492565b905061248d8282612705565b919050565b6000604051905090565b600067ffffffffffffffff8211156124b7576124b66127dd565b5b602082029050602081019050919050565b600067ffffffffffffffff8211156124e3576124e26127dd565b5b602082029050602081019050919050565b600067ffffffffffffffff82111561250f5761250e6127dd565b5b6125188261282e565b9050602081019050919050565b600067ffffffffffffffff8211156125405761253f6127dd565b5b6125498261282e565b9050602081019050919050565b6000819050602082019050919050565b600081519050919050565b600081519050919050565b600081519050919050565b6000602082019050919050565b600082825260208201905092915050565b600082825260208201905092915050565b600082825260208201905092915050565b60006125d282612687565b91506125dd83612687565b9250827fffffffffffffffffffffffffffffffffffffffffffffffffffffffffffffffff038211156126125761261161277f565b5b828201905092915050565b600061262882612667565b9050919050565b60008115159050919050565b60007fffffffff0000000000000000000000000000000000000000000000000000000082169050919050565b600073ffffffffffffffffffffffffffffffffffffffff82169050919050565b6000819050919050565b82818337600083830152505050565b60005b838110156126be5780820151818401526020810190506126a3565b838111156126cd576000848401525b50505050565b600060028204905060018216806126eb57607f821691505b602082108114156126ff576126fe6127ae565b5b50919050565b61270e8261282e565b810181811067ffffffffffffffff8211171561272d5761272c6127dd565b5b80604052505050565b600061274182612687565b91507fffffffffffffffffffffffffffffffffffffffffffffffffffffffffffffffff8214156127745761277361277f565b5b600182019050919050565b7f4e487b7100000000000000000000000000000000000000000000000000000000600052601160045260246000fd5b7f4e487b7100000000000000000000000000000000000000000000000000000000600052602260045260246000fd5b7f4e487b7100000000000000000000000000000000000000000000000000000000600052604160045260246000fd5b600060033d111561282b5760046000803e61282860005161283f565b90505b90565b6000601f19601f8301169050919050565b60008160e01c9050919050565b7f455243313135353a207472616e7366657220746f206e6f6e204552433131353560008201527f526563656976657220696d706c656d656e746572000000000000000000000000602082015250565b7f455243313135353a204552433131353552656365697665722072656a6563746560008201527f6420746f6b656e73000000000000000000000000000000000000000000000000602082015250565b7f455243313135353a2062616c616e636520717565727920666f7220746865207a60008201527f65726f2061646472657373000000000000000000000000000000000000000000602082015250565b7f455243313135353a2063616c6c6572206973206e6f74206f776e6572206e6f7260008201527f20617070726f7665640000000000000000000000000000000000000000000000602082015250565b7f455243313135353a207472616e7366657220746f20746865207a65726f20616460008201527f6472657373000000000000000000000000000000000000000000000000000000602082015250565b7f455243313135353a207472616e736665722063616c6c6572206973206e6f742060008201527f6f776e6572206e6f7220617070726f7665640000000000000000000000000000602082015250565b7f455243313135353a20696e73756666696369656e742062616c616e636520666f60008201527f72207472616e7366657200000000000000000000000000000000000000000000602082015250565b7f455243313135353a2073657474696e6720617070726f76616c2073746174757360008201527f20666f722073656c660000000000000000000000000000000000000000000000602082015250565b7f455243313135353a206163636f756e747320616e6420696473206c656e67746860008201527f206d69736d617463680000000000000000000000000000000000000000000000602082015250565b7f455243313135353a2069647320616e6420616d6f756e7473206c656e6774682060008201527f6d69736d61746368000000000000000000000000000000000000000000000000602082015250565b7f455243313135353a206d696e7420746f20746865207a65726f2061646472657360008201527f7300000000000000000000000000000000000000000000000000000000000000602082015250565b600060443d1015612bc157612c44565b612bc9612492565b60043d036004823e80513d602482011167ffffffffffffffff82111715612bf1575050612c44565b808201805167ffffffffffffffff811115612c0f5750505050612c44565b80602083010160043d038501811115612c2c575050505050612c44565b612c3b82602001850186612705565b82955050505050505b90565b612c508161261d565b8114612c5b57600080fd5b50565b612c678161262f565b8114612c7257600080fd5b50565b612c7e8161263b565b8114612c8957600080fd5b50565b612c9581612687565b8114612ca057600080fd5b5056fea264697066735822122013f0c3f3dc3330d01c94c3ea605d2bc6ef9f2e0768252aa46e7f1d58efdd54ce64736f6c63430008030033a264697066735822122024fc8b4301141b6dbe94f27fd63717f0d9e40b2e1b55b9fd007134332921c78d64736f6c63430008030033",
  "linkReferences": {},
  "deployedLinkReferences": {}
}