{
  "_format": "hh-sol-artifact-1",
  "contractName": "ERC721Factory",
  "sourceName": "contracts/ERC721Factory.sol",
  "abi": [
    {
      "inputs": [],
      "stateMutability": "nonpayable",
      "type": "constructor"
    },
    {
      "inputs": [
        {
          "internalType": "address",
          "name": "nftAddress",
          "type": "address"
        },
        {
          "internalType": "uint256",
          "name": "tokenId",
          "type": "uint256"
        }
      ],
      "name": "AlreadyListed",
      "type": "error"
    },
    {
      "inputs": [],
      "name": "NoProceeds",
      "type": "error"
    },
    {
      "inputs": [],
      "name": "NotApprovedForMarketplace",
      "type": "error"
    },
    {
      "inputs": [
        {
          "internalType": "address",
          "name": "nftAddress",
          "type": "address"
        },
        {
          "internalType": "uint256",
          "name": "tokenId",
          "type": "uint256"
        }
      ],
      "name": "NotListed",
      "type": "error"
    },
    {
      "inputs": [],
      "name": "NotOwner",
      "type": "error"
    },
    {
      "inputs": [],
      "name": "PriceMustBeAboveZero",
      "type": "error"
    },
    {
      "inputs": [
        {
          "internalType": "address",
          "name": "nftAddress",
          "type": "address"
        },
        {
          "internalType": "uint256",
          "name": "tokenId",
          "type": "uint256"
        },
        {
          "internalType": "uint256",
          "name": "price",
          "type": "uint256"
        }
      ],
      "name": "PriceNotMet",
      "type": "error"
    },
    {
      "anonymous": false,
      "inputs": [
        {
          "indexed": true,
          "internalType": "address",
          "name": "buyer",
          "type": "address"
        },
        {
          "indexed": true,
          "internalType": "address",
          "name": "nftAddress",
          "type": "address"
        },
        {
          "indexed": true,
          "internalType": "uint256",
          "name": "tokenId",
          "type": "uint256"
        },
        {
          "indexed": false,
          "internalType": "uint256",
          "name": "price",
          "type": "uint256"
        }
      ],
      "name": "ItemBought",
      "type": "event"
    },
    {
      "anonymous": false,
      "inputs": [
        {
          "indexed": true,
          "internalType": "address",
          "name": "seller",
          "type": "address"
        },
        {
          "indexed": true,
          "internalType": "address",
          "name": "nftAddress",
          "type": "address"
        },
        {
          "indexed": true,
          "internalType": "uint256",
          "name": "tokenId",
          "type": "uint256"
        }
      ],
      "name": "ItemCanceled",
      "type": "event"
    },
    {
      "anonymous": false,
      "inputs": [
        {
          "indexed": true,
          "internalType": "address",
          "name": "seller",
          "type": "address"
        },
        {
          "indexed": true,
          "internalType": "address",
          "name": "nftAddress",
          "type": "address"
        },
        {
          "indexed": true,
          "internalType": "uint256",
          "name": "tokenId",
          "type": "uint256"
        },
        {
          "indexed": false,
          "internalType": "uint256",
          "name": "price",
          "type": "uint256"
        }
      ],
      "name": "ItemListed",
      "type": "event"
    },
    {
      "inputs": [
        {
          "internalType": "address",
          "name": "nftAddress",
          "type": "address"
        },
        {
          "internalType": "uint256",
          "name": "tokenId",
          "type": "uint256"
        }
      ],
      "name": "buyItem",
      "outputs": [],
      "stateMutability": "payable",
      "type": "function"
    },
    {
      "inputs": [
        {
          "internalType": "address",
          "name": "nftAddress",
          "type": "address"
        },
        {
          "internalType": "uint256",
          "name": "tokenId",
          "type": "uint256"
        }
      ],
      "name": "cancelListing",
      "outputs": [],
      "stateMutability": "nonpayable",
      "type": "function"
    },
    {
      "inputs": [
        {
          "internalType": "string",
          "name": "_name",
          "type": "string"
        },
        {
          "internalType": "string",
          "name": "_symbol",
          "type": "string"
        }
      ],
      "name": "createToken",
      "outputs": [
        {
          "internalType": "address",
          "name": "_contractAddr",
          "type": "address"
        }
      ],
      "stateMutability": "nonpayable",
      "type": "function"
    },
    {
      "inputs": [],
      "name": "erc721nft",
      "outputs": [
        {
          "internalType": "contract ERC721NFT",
          "name": "",
          "type": "address"
        }
      ],
      "stateMutability": "view",
      "type": "function"
    },
    {
      "inputs": [
        {
          "internalType": "address",
          "name": "nftAddress",
          "type": "address"
        },
        {
          "internalType": "uint256",
          "name": "tokenId",
          "type": "uint256"
        }
      ],
      "name": "getListing",
      "outputs": [
        {
          "components": [
            {
              "internalType": "uint256",
              "name": "price",
              "type": "uint256"
            },
            {
              "internalType": "address",
              "name": "seller",
              "type": "address"
            }
          ],
          "internalType": "struct ERC721Factory.Listing",
          "name": "",
          "type": "tuple"
        }
      ],
      "stateMutability": "view",
      "type": "function"
    },
    {
      "inputs": [
        {
          "internalType": "address",
          "name": "seller",
          "type": "address"
        }
      ],
      "name": "getProceeds",
      "outputs": [
        {
          "internalType": "uint256",
          "name": "",
          "type": "uint256"
        }
      ],
      "stateMutability": "view",
      "type": "function"
    },
    {
      "inputs": [
        {
          "internalType": "address",
          "name": "nftAddress",
          "type": "address"
        },
        {
          "internalType": "uint256",
          "name": "tokenId",
          "type": "uint256"
        },
        {
          "internalType": "uint256",
          "name": "price",
          "type": "uint256"
        }
      ],
      "name": "listItem",
      "outputs": [],
      "stateMutability": "nonpayable",
      "type": "function"
    },
    {
      "inputs": [
        {
          "internalType": "address",
          "name": "nftAddress",
          "type": "address"
        },
        {
          "internalType": "uint256",
          "name": "tokenId",
          "type": "uint256"
        },
        {
          "internalType": "uint256",
          "name": "newPrice",
          "type": "uint256"
        }
      ],
      "name": "updateListing",
      "outputs": [],
      "stateMutability": "nonpayable",
      "type": "function"
    },
    {
      "inputs": [],
      "name": "withdrawProceeds",
      "outputs": [],
      "stateMutability": "nonpayable",
      "type": "function"
    }
  ],
  "bytecode": "0x608060405234801561001057600080fd5b506001600081905550615241806100286000396000f3fe608060405260043610620000925760003560e01c806389bfd38f116200006157806389bfd38f14620001935780639038e69314620001c15780639f37092a14620001db578063b2ddee0614620001fb578063f772adf114620002295762000092565b80632f2f2d56146200009757806330cfeda914620000db57806345a6fbbb146200011f57806388700d1c146200014f575b600080fd5b348015620000a457600080fd5b50620000c36004803603810190620000bd919062001719565b62000257565b604051620000d29190620018f3565b60405180910390f35b348015620000e857600080fd5b5062000107600480360381019062000101919062001612565b620002ff565b60405162000116919062001a70565b60405180910390f35b3480156200012c57600080fd5b506200013762000348565b604051620001469190620019b7565b60405180910390f35b3480156200015c57600080fd5b506200017b600480360381019062000175919062001676565b6200036e565b6040516200018a919062001a53565b60405180910390f35b348015620001a057600080fd5b50620001bf6004803603810190620001b99190620016bd565b6200043b565b005b348015620001ce57600080fd5b50620001d9620008c7565b005b620001f96004803603810190620001f3919062001676565b62000a42565b005b3480156200020857600080fd5b5062000227600480360381019062000221919062001676565b62000ee2565b005b3480156200023657600080fd5b506200025560048036038101906200024f9190620016bd565b620011db565b005b60008282604051620002699062001511565b62000276929190620019d4565b604051809103906000f08015801562000293573d6000803e3d6000fd5b50600160006101000a81548173ffffffffffffffffffffffffffffffffffffffff021916908373ffffffffffffffffffffffffffffffffffffffff160217905550600160009054906101000a900473ffffffffffffffffffffffffffffffffffffffff16905092915050565b6000600360008373ffffffffffffffffffffffffffffffffffffffff1673ffffffffffffffffffffffffffffffffffffffff168152602001908152602001600020549050919050565b600160009054906101000a900473ffffffffffffffffffffffffffffffffffffffff1681565b620003786200151f565b600260008473ffffffffffffffffffffffffffffffffffffffff1673ffffffffffffffffffffffffffffffffffffffff1681526020019081526020016000206000838152602001908152602001600020604051806040016040529081600082015481526020016001820160009054906101000a900473ffffffffffffffffffffffffffffffffffffffff1673ffffffffffffffffffffffffffffffffffffffff1673ffffffffffffffffffffffffffffffffffffffff1681525050905092915050565b8282336000600260008573ffffffffffffffffffffffffffffffffffffffff1673ffffffffffffffffffffffffffffffffffffffff1681526020019081526020016000206000848152602001908152602001600020604051806040016040529081600082015481526020016001820160009054906101000a900473ffffffffffffffffffffffffffffffffffffffff1673ffffffffffffffffffffffffffffffffffffffff1673ffffffffffffffffffffffffffffffffffffffff168152505090506000816000015111156200054c5783836040517f4a5568d5000000000000000000000000000000000000000000000000000000008152600401620005439291906200194d565b60405180910390fd5b868633600083905060008173ffffffffffffffffffffffffffffffffffffffff16636352211e856040518263ffffffff1660e01b815260040162000591919062001a70565b60206040518083038186803b158015620005aa57600080fd5b505afa158015620005bf573d6000803e3d6000fd5b505050506040513d601f19601f82011682018060405250810190620005e5919062001644565b90508073ffffffffffffffffffffffffffffffffffffffff168373ffffffffffffffffffffffffffffffffffffffff16146200064d576040517f30cd747100000000000000000000000000000000000000000000000000000000815260040160405180910390fd5b60008a1162000688576040517fe1abbfc500000000000000000000000000000000000000000000000000000000815260040160405180910390fd5b60008c90503073ffffffffffffffffffffffffffffffffffffffff168173ffffffffffffffffffffffffffffffffffffffff1663081812fc8e6040518263ffffffff1660e01b8152600401620006df919062001a70565b60206040518083038186803b158015620006f857600080fd5b505afa1580156200070d573d6000803e3d6000fd5b505050506040513d601f19601f8201168201806040525081019062000733919062001644565b73ffffffffffffffffffffffffffffffffffffffff161462000781576040517f4be3a2c500000000000000000000000000000000000000000000000000000000815260040160405180910390fd5b60405180604001604052808c81526020013373ffffffffffffffffffffffffffffffffffffffff16815250600260008f73ffffffffffffffffffffffffffffffffffffffff1673ffffffffffffffffffffffffffffffffffffffff16815260200190815260200160002060008e81526020019081526020016000206000820151816000015560208201518160010160006101000a81548173ffffffffffffffffffffffffffffffffffffffff021916908373ffffffffffffffffffffffffffffffffffffffff1602179055509050508b8d73ffffffffffffffffffffffffffffffffffffffff163373ffffffffffffffffffffffffffffffffffffffff167fd547e933094f12a9159076970143ebe73234e64480317844b0dcb36117116de48e604051620008b0919062001a70565b60405180910390a450505050505050505050505050565b6000600360003373ffffffffffffffffffffffffffffffffffffffff1673ffffffffffffffffffffffffffffffffffffffff1681526020019081526020016000205490506000811162000946576040517fc4d8fa8700000000000000000000000000000000000000000000000000000000815260040160405180910390fd5b6000600360003373ffffffffffffffffffffffffffffffffffffffff1673ffffffffffffffffffffffffffffffffffffffff1681526020019081526020016000208190555060003373ffffffffffffffffffffffffffffffffffffffff1682604051620009b390620018dc565b60006040518083038185875af1925050503d8060008114620009f2576040519150601f19603f3d011682016040523d82523d6000602084013e620009f7565b606091505b505090508062000a3e576040517f08c379a000000000000000000000000000000000000000000000000000000000815260040162000a359062001a0f565b60405180910390fd5b5050565b81816000600260008473ffffffffffffffffffffffffffffffffffffffff1673ffffffffffffffffffffffffffffffffffffffff1681526020019081526020016000206000838152602001908152602001600020604051806040016040529081600082015481526020016001820160009054906101000a900473ffffffffffffffffffffffffffffffffffffffff1673ffffffffffffffffffffffffffffffffffffffff1673ffffffffffffffffffffffffffffffffffffffff16815250509050600081600001511162000b515782826040517f6831488c00000000000000000000000000000000000000000000000000000000815260040162000b489291906200194d565b60405180910390fd5b6002600054141562000b9a576040517f08c379a000000000000000000000000000000000000000000000000000000000815260040162000b919062001a31565b60405180910390fd5b60026000819055506000600260008773ffffffffffffffffffffffffffffffffffffffff1673ffffffffffffffffffffffffffffffffffffffff1681526020019081526020016000206000868152602001908152602001600020604051806040016040529081600082015481526020016001820160009054906101000a900473ffffffffffffffffffffffffffffffffffffffff1673ffffffffffffffffffffffffffffffffffffffff1673ffffffffffffffffffffffffffffffffffffffff16815250509050806000015134101562000cb557858582600001516040517f7c93456500000000000000000000000000000000000000000000000000000000815260040162000cac939291906200197a565b60405180910390fd5b6000816020015173ffffffffffffffffffffffffffffffffffffffff163460405162000ce190620018dc565b60006040518083038185875af1925050503d806000811462000d20576040519150601f19603f3d011682016040523d82523d6000602084013e62000d25565b606091505b505090508062000d6c576040517f08c379a000000000000000000000000000000000000000000000000000000000815260040162000d639062001a0f565b60405180910390fd5b600260008873ffffffffffffffffffffffffffffffffffffffff1673ffffffffffffffffffffffffffffffffffffffff16815260200190815260200160002060008781526020019081526020016000206000808201600090556001820160006101000a81549073ffffffffffffffffffffffffffffffffffffffff021916905550508673ffffffffffffffffffffffffffffffffffffffff166342842e0e836020015133896040518463ffffffff1660e01b815260040162000e319392919062001910565b600060405180830381600087803b15801562000e4c57600080fd5b505af115801562000e61573d6000803e3d6000fd5b50505050858773ffffffffffffffffffffffffffffffffffffffff163373ffffffffffffffffffffffffffffffffffffffff167f263223b1dd81e51054a4e6f791d45a4a1ddb4aadcd93a2dfd892615c3fdac187856000015160405162000ec9919062001a70565b60405180910390a4505060016000819055505050505050565b818133600083905060008173ffffffffffffffffffffffffffffffffffffffff16636352211e856040518263ffffffff1660e01b815260040162000f27919062001a70565b60206040518083038186803b15801562000f4057600080fd5b505afa15801562000f55573d6000803e3d6000fd5b505050506040513d601f19601f8201168201806040525081019062000f7b919062001644565b90508073ffffffffffffffffffffffffffffffffffffffff168373ffffffffffffffffffffffffffffffffffffffff161462000fe3576040517f30cd747100000000000000000000000000000000000000000000000000000000815260040160405180910390fd5b86866000600260008473ffffffffffffffffffffffffffffffffffffffff1673ffffffffffffffffffffffffffffffffffffffff1681526020019081526020016000206000838152602001908152602001600020604051806040016040529081600082015481526020016001820160009054906101000a900473ffffffffffffffffffffffffffffffffffffffff1673ffffffffffffffffffffffffffffffffffffffff1673ffffffffffffffffffffffffffffffffffffffff168152505090506000816000015111620010f25782826040517f6831488c000000000000000000000000000000000000000000000000000000008152600401620010e99291906200194d565b60405180910390fd5b600260008b73ffffffffffffffffffffffffffffffffffffffff1673ffffffffffffffffffffffffffffffffffffffff16815260200190815260200160002060008a81526020019081526020016000206000808201600090556001820160006101000a81549073ffffffffffffffffffffffffffffffffffffffff02191690555050888a73ffffffffffffffffffffffffffffffffffffffff163373ffffffffffffffffffffffffffffffffffffffff167f9ba1a3cb55ce8d63d072a886f94d2a744f50cddf82128e897d0661f5ec62315860405160405180910390a450505050505050505050565b82826000600260008473ffffffffffffffffffffffffffffffffffffffff1673ffffffffffffffffffffffffffffffffffffffff1681526020019081526020016000206000838152602001908152602001600020604051806040016040529081600082015481526020016001820160009054906101000a900473ffffffffffffffffffffffffffffffffffffffff1673ffffffffffffffffffffffffffffffffffffffff1673ffffffffffffffffffffffffffffffffffffffff168152505090506000816000015111620012ea5782826040517f6831488c000000000000000000000000000000000000000000000000000000008152600401620012e19291906200194d565b60405180910390fd5b6002600054141562001333576040517f08c379a00000000000000000000000000000000000000000000000000000000081526004016200132a9062001a31565b60405180910390fd5b6002600081905550858533600083905060008173ffffffffffffffffffffffffffffffffffffffff16636352211e856040518263ffffffff1660e01b815260040162001380919062001a70565b60206040518083038186803b1580156200139957600080fd5b505afa158015620013ae573d6000803e3d6000fd5b505050506040513d601f19601f82011682018060405250810190620013d4919062001644565b90508073ffffffffffffffffffffffffffffffffffffffff168373ffffffffffffffffffffffffffffffffffffffff16146200143c576040517f30cd747100000000000000000000000000000000000000000000000000000000815260040160405180910390fd5b88600260008d73ffffffffffffffffffffffffffffffffffffffff1673ffffffffffffffffffffffffffffffffffffffff16815260200190815260200160002060008c815260200190815260200160002060000181905550898b73ffffffffffffffffffffffffffffffffffffffff163373ffffffffffffffffffffffffffffffffffffffff167fd547e933094f12a9159076970143ebe73234e64480317844b0dcb36117116de48c604051620014f4919062001a70565b60405180910390a450505050506001600081905550505050505050565b6135268062001ce683390190565b604051806040016040528060008152602001600073ffffffffffffffffffffffffffffffffffffffff1681525090565b600062001566620015608462001ab6565b62001a8d565b90508281526020810184848401111562001585576200158462001c3c565b5b6200159284828562001b8d565b509392505050565b600081359050620015ab8162001cb1565b92915050565b600081519050620015c28162001cb1565b92915050565b600082601f830112620015e057620015df62001c37565b5b8135620015f28482602086016200154f565b91505092915050565b6000813590506200160c8162001ccb565b92915050565b6000602082840312156200162b576200162a62001c46565b5b60006200163b848285016200159a565b91505092915050565b6000602082840312156200165d576200165c62001c46565b5b60006200166d84828501620015b1565b91505092915050565b6000806040838503121562001690576200168f62001c46565b5b6000620016a0858286016200159a565b9250506020620016b385828601620015fb565b9150509250929050565b600080600060608486031215620016d957620016d862001c46565b5b6000620016e9868287016200159a565b9350506020620016fc86828701620015fb565b92505060406200170f86828701620015fb565b9150509250925092565b6000806040838503121562001733576200173262001c46565b5b600083013567ffffffffffffffff81111562001754576200175362001c41565b5b6200176285828601620015c8565b925050602083013567ffffffffffffffff81111562001786576200178562001c41565b5b6200179485828601620015c8565b9150509250929050565b620017a98162001b13565b82525050565b620017ba8162001b13565b82525050565b620017cb8162001b51565b82525050565b6000620017de8262001aec565b620017ea818562001b02565b9350620017fc81856020860162001b9c565b620018078162001c4b565b840191505092915050565b600062001821600f8362001b02565b91506200182e8262001c5c565b602082019050919050565b60006200184860008362001af7565b9150620018558262001c85565b600082019050919050565b60006200186f601f8362001b02565b91506200187c8262001c88565b602082019050919050565b6040820160008201516200189f6000850182620018ba565b506020820151620018b460208501826200179e565b50505050565b620018c58162001b47565b82525050565b620018d68162001b47565b82525050565b6000620018e98262001839565b9150819050919050565b60006020820190506200190a6000830184620017af565b92915050565b6000606082019050620019276000830186620017af565b620019366020830185620017af565b620019456040830184620018cb565b949350505050565b6000604082019050620019646000830185620017af565b620019736020830184620018cb565b9392505050565b6000606082019050620019916000830186620017af565b620019a06020830185620018cb565b620019af6040830184620018cb565b949350505050565b6000602082019050620019ce6000830184620017c0565b92915050565b60006040820190508181036000830152620019f08185620017d1565b9050818103602083015262001a068184620017d1565b90509392505050565b6000602082019050818103600083015262001a2a8162001812565b9050919050565b6000602082019050818103600083015262001a4c8162001860565b9050919050565b600060408201905062001a6a600083018462001887565b92915050565b600060208201905062001a876000830184620018cb565b92915050565b600062001a9962001aac565b905062001aa7828262001bd2565b919050565b6000604051905090565b600067ffffffffffffffff82111562001ad45762001ad362001c08565b5b62001adf8262001c4b565b9050602081019050919050565b600081519050919050565b600081905092915050565b600082825260208201905092915050565b600062001b208262001b27565b9050919050565b600073ffffffffffffffffffffffffffffffffffffffff82169050919050565b6000819050919050565b600062001b5e8262001b65565b9050919050565b600062001b728262001b79565b9050919050565b600062001b868262001b27565b9050919050565b82818337600083830152505050565b60005b8381101562001bbc57808201518184015260208101905062001b9f565b8381111562001bcc576000848401525b50505050565b62001bdd8262001c4b565b810181811067ffffffffffffffff8211171562001bff5762001bfe62001c08565b5b80604052505050565b7f4e487b7100000000000000000000000000000000000000000000000000000000600052604160045260246000fd5b600080fd5b600080fd5b600080fd5b600080fd5b6000601f19601f8301169050919050565b7f5472616e73666572206661696c65640000000000000000000000000000000000600082015250565b50565b7f5265656e7472616e637947756172643a207265656e7472616e742063616c6c00600082015250565b62001cbc8162001b13565b811462001cc857600080fd5b50565b62001cd68162001b47565b811462001ce257600080fd5b5056fe608060405260006008553480156200001657600080fd5b50604051620035263803806200352683398181016040528101906200003c919062000296565b818181600090805190602001906200005692919062000168565b5080600190805190602001906200006f92919062000168565b50505062000092620000866200009a60201b60201c565b620000a260201b60201c565b50506200049f565b600033905090565b6000600760009054906101000a900473ffffffffffffffffffffffffffffffffffffffff16905081600760006101000a81548173ffffffffffffffffffffffffffffffffffffffff021916908373ffffffffffffffffffffffffffffffffffffffff1602179055508173ffffffffffffffffffffffffffffffffffffffff168173ffffffffffffffffffffffffffffffffffffffff167f8be0079c531659141344cd1fd0a4f28419497f9722a3daafe3b4186f6b6457e060405160405180910390a35050565b8280546200017690620003b0565b90600052602060002090601f0160209004810192826200019a5760008555620001e6565b82601f10620001b557805160ff1916838001178555620001e6565b82800160010185558215620001e6579182015b82811115620001e5578251825591602001919060010190620001c8565b5b509050620001f59190620001f9565b5090565b5b8082111562000214576000816000905550600101620001fa565b5090565b60006200022f620002298462000344565b6200031b565b9050828152602081018484840111156200024e576200024d6200047f565b5b6200025b8482856200037a565b509392505050565b600082601f8301126200027b576200027a6200047a565b5b81516200028d84826020860162000218565b91505092915050565b60008060408385031215620002b057620002af62000489565b5b600083015167ffffffffffffffff811115620002d157620002d062000484565b5b620002df8582860162000263565b925050602083015167ffffffffffffffff81111562000303576200030262000484565b5b620003118582860162000263565b9150509250929050565b6000620003276200033a565b9050620003358282620003e6565b919050565b6000604051905090565b600067ffffffffffffffff8211156200036257620003616200044b565b5b6200036d826200048e565b9050602081019050919050565b60005b838110156200039a5780820151818401526020810190506200037d565b83811115620003aa576000848401525b50505050565b60006002820490506001821680620003c957607f821691505b60208210811415620003e057620003df6200041c565b5b50919050565b620003f1826200048e565b810181811067ffffffffffffffff821117156200041357620004126200044b565b5b80604052505050565b7f4e487b7100000000000000000000000000000000000000000000000000000000600052602260045260246000fd5b7f4e487b7100000000000000000000000000000000000000000000000000000000600052604160045260246000fd5b600080fd5b600080fd5b600080fd5b600080fd5b6000601f19601f8301169050919050565b61307780620004af6000396000f3fe6080604052600436106101095760003560e01c8063715018a611610095578063b88d4fde11610064578063b88d4fde14610369578063c87b56dd14610392578063d3fc9864146103cf578063e985e9c5146103eb578063f2fde38b1461042857610109565b8063715018a6146102d35780638da5cb5b146102ea57806395d89b4114610315578063a22cb4651461034057610109565b8063095ea7b3116100dc578063095ea7b3146101de57806323b872dd1461020757806342842e0e146102305780636352211e1461025957806370a082311461029657610109565b806301ffc9a71461010e578063047fc9aa1461014b57806306fdde0314610176578063081812fc146101a1575b600080fd5b34801561011a57600080fd5b5061013560048036038101906101309190611fd7565b610451565b604051610142919061242f565b60405180910390f35b34801561015757600080fd5b50610160610533565b60405161016d91906126ac565b60405180910390f35b34801561018257600080fd5b5061018b610539565b604051610198919061244a565b60405180910390f35b3480156101ad57600080fd5b506101c860048036038101906101c39190612031565b6105cb565b6040516101d591906123c8565b60405180910390f35b3480156101ea57600080fd5b5061020560048036038101906102009190611f28565b610650565b005b34801561021357600080fd5b5061022e60048036038101906102299190611e12565b610768565b005b34801561023c57600080fd5b5061025760048036038101906102529190611e12565b6107c8565b005b34801561026557600080fd5b50610280600480360381019061027b9190612031565b6107e8565b60405161028d91906123c8565b60405180910390f35b3480156102a257600080fd5b506102bd60048036038101906102b89190611da5565b61089a565b6040516102ca91906126ac565b60405180910390f35b3480156102df57600080fd5b506102e8610952565b005b3480156102f657600080fd5b506102ff6109da565b60405161030c91906123c8565b60405180910390f35b34801561032157600080fd5b5061032a610a04565b604051610337919061244a565b60405180910390f35b34801561034c57600080fd5b5061036760048036038101906103629190611ee8565b610a96565b005b34801561037557600080fd5b50610390600480360381019061038b9190611e65565b610aac565b005b34801561039e57600080fd5b506103b960048036038101906103b49190612031565b610b0e565b6040516103c6919061244a565b60405180910390f35b6103e960048036038101906103e49190611f68565b610c60565b005b3480156103f757600080fd5b50610412600480360381019061040d9190611dd2565b610c91565b60405161041f919061242f565b60405180910390f35b34801561043457600080fd5b5061044f600480360381019061044a9190611da5565b610d25565b005b60007f80ac58cd000000000000000000000000000000000000000000000000000000007bffffffffffffffffffffffffffffffffffffffffffffffffffffffff1916827bffffffffffffffffffffffffffffffffffffffffffffffffffffffff1916148061051c57507f5b5e139f000000000000000000000000000000000000000000000000000000007bffffffffffffffffffffffffffffffffffffffffffffffffffffffff1916827bffffffffffffffffffffffffffffffffffffffffffffffffffffffff1916145b8061052c575061052b82610e1d565b5b9050919050565b60085481565b60606000805461054890612902565b80601f016020809104026020016040519081016040528092919081815260200182805461057490612902565b80156105c15780601f10610596576101008083540402835291602001916105c1565b820191906000526020600020905b8154815290600101906020018083116105a457829003601f168201915b5050505050905090565b60006105d682610e87565b610615576040517f08c379a000000000000000000000000000000000000000000000000000000000815260040161060c9061260c565b60405180910390fd5b6004600083815260200190815260200160002060009054906101000a900473ffffffffffffffffffffffffffffffffffffffff169050919050565b600061065b826107e8565b90508073ffffffffffffffffffffffffffffffffffffffff168373ffffffffffffffffffffffffffffffffffffffff1614156106cc576040517f08c379a00000000000000000000000000000000000000000000000000000000081526004016106c39061266c565b60405180910390fd5b8073ffffffffffffffffffffffffffffffffffffffff166106eb610ef3565b73ffffffffffffffffffffffffffffffffffffffff16148061071a575061071981610714610ef3565b610c91565b5b610759576040517f08c379a00000000000000000000000000000000000000000000000000000000081526004016107509061254c565b60405180910390fd5b6107638383610efb565b505050565b610779610773610ef3565b82610fb4565b6107b8576040517f08c379a00000000000000000000000000000000000000000000000000000000081526004016107af9061268c565b60405180910390fd5b6107c3838383611092565b505050565b6107e383838360405180602001604052806000815250610aac565b505050565b6000806002600084815260200190815260200160002060009054906101000a900473ffffffffffffffffffffffffffffffffffffffff169050600073ffffffffffffffffffffffffffffffffffffffff168173ffffffffffffffffffffffffffffffffffffffff161415610891576040517f08c379a00000000000000000000000000000000000000000000000000000000081526004016108889061258c565b60405180910390fd5b80915050919050565b60008073ffffffffffffffffffffffffffffffffffffffff168273ffffffffffffffffffffffffffffffffffffffff16141561090b576040517f08c379a00000000000000000000000000000000000000000000000000000000081526004016109029061256c565b60405180910390fd5b600360008373ffffffffffffffffffffffffffffffffffffffff1673ffffffffffffffffffffffffffffffffffffffff168152602001908152602001600020549050919050565b61095a610ef3565b73ffffffffffffffffffffffffffffffffffffffff166109786109da565b73ffffffffffffffffffffffffffffffffffffffff16146109ce576040517f08c379a00000000000000000000000000000000000000000000000000000000081526004016109c59061262c565b60405180910390fd5b6109d860006112f9565b565b6000600760009054906101000a900473ffffffffffffffffffffffffffffffffffffffff16905090565b606060018054610a1390612902565b80601f0160208091040260200160405190810160405280929190818152602001828054610a3f90612902565b8015610a8c5780601f10610a6157610100808354040283529160200191610a8c565b820191906000526020600020905b815481529060010190602001808311610a6f57829003601f168201915b5050505050905090565b610aa8610aa1610ef3565b83836113bf565b5050565b610abd610ab7610ef3565b83610fb4565b610afc576040517f08c379a0000000000000000000000000000000000000000000000000000000008152600401610af39061268c565b60405180910390fd5b610b088484848461152c565b50505050565b6060610b1982610e87565b610b58576040517f08c379a0000000000000000000000000000000000000000000000000000000008152600401610b4f906125ec565b60405180910390fd5b6000600660008481526020019081526020016000208054610b7890612902565b80601f0160208091040260200160405190810160405280929190818152602001828054610ba490612902565b8015610bf15780601f10610bc657610100808354040283529160200191610bf1565b820191906000526020600020905b815481529060010190602001808311610bd457829003601f168201915b505050505090506000610c02611588565b9050600081511415610c18578192505050610c5b565b600082511115610c4d578082604051602001610c359291906123a4565b60405160208183030381529060405292505050610c5b565b610c568461159f565b925050505b919050565b610c6a8383611646565b610c748282611820565b60086000815480929190610c8790612965565b9190505550505050565b6000600560008473ffffffffffffffffffffffffffffffffffffffff1673ffffffffffffffffffffffffffffffffffffffff16815260200190815260200160002060008373ffffffffffffffffffffffffffffffffffffffff1673ffffffffffffffffffffffffffffffffffffffff16815260200190815260200160002060009054906101000a900460ff16905092915050565b610d2d610ef3565b73ffffffffffffffffffffffffffffffffffffffff16610d4b6109da565b73ffffffffffffffffffffffffffffffffffffffff1614610da1576040517f08c379a0000000000000000000000000000000000000000000000000000000008152600401610d989061262c565b60405180910390fd5b600073ffffffffffffffffffffffffffffffffffffffff168173ffffffffffffffffffffffffffffffffffffffff161415610e11576040517f08c379a0000000000000000000000000000000000000000000000000000000008152600401610e089061248c565b60405180910390fd5b610e1a816112f9565b50565b60007f01ffc9a7000000000000000000000000000000000000000000000000000000007bffffffffffffffffffffffffffffffffffffffffffffffffffffffff1916827bffffffffffffffffffffffffffffffffffffffffffffffffffffffff1916149050919050565b60008073ffffffffffffffffffffffffffffffffffffffff166002600084815260200190815260200160002060009054906101000a900473ffffffffffffffffffffffffffffffffffffffff1673ffffffffffffffffffffffffffffffffffffffff1614159050919050565b600033905090565b816004600083815260200190815260200160002060006101000a81548173ffffffffffffffffffffffffffffffffffffffff021916908373ffffffffffffffffffffffffffffffffffffffff160217905550808273ffffffffffffffffffffffffffffffffffffffff16610f6e836107e8565b73ffffffffffffffffffffffffffffffffffffffff167f8c5be1e5ebec7d5bd14f71427d1e84f3dd0314c0f7b2291e5b200ac8c7c3b92560405160405180910390a45050565b6000610fbf82610e87565b610ffe576040517f08c379a0000000000000000000000000000000000000000000000000000000008152600401610ff59061252c565b60405180910390fd5b6000611009836107e8565b90508073ffffffffffffffffffffffffffffffffffffffff168473ffffffffffffffffffffffffffffffffffffffff16148061104b575061104a8185610c91565b5b8061108957508373ffffffffffffffffffffffffffffffffffffffff16611071846105cb565b73ffffffffffffffffffffffffffffffffffffffff16145b91505092915050565b8273ffffffffffffffffffffffffffffffffffffffff166110b2826107e8565b73ffffffffffffffffffffffffffffffffffffffff1614611108576040517f08c379a00000000000000000000000000000000000000000000000000000000081526004016110ff906124ac565b60405180910390fd5b600073ffffffffffffffffffffffffffffffffffffffff168273ffffffffffffffffffffffffffffffffffffffff161415611178576040517f08c379a000000000000000000000000000000000000000000000000000000000815260040161116f906124ec565b60405180910390fd5b611183838383611894565b61118e600082610efb565b6001600360008573ffffffffffffffffffffffffffffffffffffffff1673ffffffffffffffffffffffffffffffffffffffff16815260200190815260200160002060008282546111de9190612818565b925050819055506001600360008473ffffffffffffffffffffffffffffffffffffffff1673ffffffffffffffffffffffffffffffffffffffff16815260200190815260200160002060008282546112359190612791565b92505081905550816002600083815260200190815260200160002060006101000a81548173ffffffffffffffffffffffffffffffffffffffff021916908373ffffffffffffffffffffffffffffffffffffffff160217905550808273ffffffffffffffffffffffffffffffffffffffff168473ffffffffffffffffffffffffffffffffffffffff167fddf252ad1be2c89b69c2b068fc378daa952ba7f163c4a11628f55a4df523b3ef60405160405180910390a46112f4838383611899565b505050565b6000600760009054906101000a900473ffffffffffffffffffffffffffffffffffffffff16905081600760006101000a81548173ffffffffffffffffffffffffffffffffffffffff021916908373ffffffffffffffffffffffffffffffffffffffff1602179055508173ffffffffffffffffffffffffffffffffffffffff168173ffffffffffffffffffffffffffffffffffffffff167f8be0079c531659141344cd1fd0a4f28419497f9722a3daafe3b4186f6b6457e060405160405180910390a35050565b8173ffffffffffffffffffffffffffffffffffffffff168373ffffffffffffffffffffffffffffffffffffffff16141561142e576040517f08c379a00000000000000000000000000000000000000000000000000000000081526004016114259061250c565b60405180910390fd5b80600560008573ffffffffffffffffffffffffffffffffffffffff1673ffffffffffffffffffffffffffffffffffffffff16815260200190815260200160002060008473ffffffffffffffffffffffffffffffffffffffff1673ffffffffffffffffffffffffffffffffffffffff16815260200190815260200160002060006101000a81548160ff0219169083151502179055508173ffffffffffffffffffffffffffffffffffffffff168373ffffffffffffffffffffffffffffffffffffffff167f17307eab39ab6107e8899845ad3d59bd9653f200f220920489ca2b5937696c318360405161151f919061242f565b60405180910390a3505050565b611537848484611092565b6115438484848461189e565b611582576040517f08c379a00000000000000000000000000000000000000000000000000000000081526004016115799061246c565b60405180910390fd5b50505050565b606060405180602001604052806000815250905090565b60606115aa82610e87565b6115e9576040517f08c379a00000000000000000000000000000000000000000000000000000000081526004016115e09061264c565b60405180910390fd5b60006115f3611588565b90506000815111611613576040518060200160405280600081525061163e565b8061161d84611a35565b60405160200161162e9291906123a4565b6040516020818303038152906040525b915050919050565b600073ffffffffffffffffffffffffffffffffffffffff168273ffffffffffffffffffffffffffffffffffffffff1614156116b6576040517f08c379a00000000000000000000000000000000000000000000000000000000081526004016116ad906125cc565b60405180910390fd5b6116bf81610e87565b156116ff576040517f08c379a00000000000000000000000000000000000000000000000000000000081526004016116f6906124cc565b60405180910390fd5b61170b60008383611894565b6001600360008473ffffffffffffffffffffffffffffffffffffffff1673ffffffffffffffffffffffffffffffffffffffff168152602001908152602001600020600082825461175b9190612791565b92505081905550816002600083815260200190815260200160002060006101000a81548173ffffffffffffffffffffffffffffffffffffffff021916908373ffffffffffffffffffffffffffffffffffffffff160217905550808273ffffffffffffffffffffffffffffffffffffffff16600073ffffffffffffffffffffffffffffffffffffffff167fddf252ad1be2c89b69c2b068fc378daa952ba7f163c4a11628f55a4df523b3ef60405160405180910390a461181c60008383611899565b5050565b61182982610e87565b611868576040517f08c379a000000000000000000000000000000000000000000000000000000000815260040161185f906125ac565b60405180910390fd5b8060066000848152602001908152602001600020908051906020019061188f929190611bb9565b505050565b505050565b505050565b60006118bf8473ffffffffffffffffffffffffffffffffffffffff16611b96565b15611a28578373ffffffffffffffffffffffffffffffffffffffff1663150b7a026118e8610ef3565b8786866040518563ffffffff1660e01b815260040161190a94939291906123e3565b602060405180830381600087803b15801561192457600080fd5b505af192505050801561195557506040513d601f19601f820116820180604052508101906119529190612004565b60015b6119d8573d8060008114611985576040519150601f19603f3d011682016040523d82523d6000602084013e61198a565b606091505b506000815114156119d0576040517f08c379a00000000000000000000000000000000000000000000000000000000081526004016119c79061246c565b60405180910390fd5b805181602001fd5b63150b7a0260e01b7bffffffffffffffffffffffffffffffffffffffffffffffffffffffff1916817bffffffffffffffffffffffffffffffffffffffffffffffffffffffff191614915050611a2d565b600190505b949350505050565b60606000821415611a7d576040518060400160405280600181526020017f30000000000000000000000000000000000000000000000000000000000000008152509050611b91565b600082905060005b60008214611aaf578080611a9890612965565b915050600a82611aa891906127e7565b9150611a85565b60008167ffffffffffffffff811115611acb57611aca612a9b565b5b6040519080825280601f01601f191660200182016040528015611afd5781602001600182028036833780820191505090505b5090505b60008514611b8a57600182611b169190612818565b9150600a85611b2591906129ae565b6030611b319190612791565b60f81b818381518110611b4757611b46612a6c565b5b60200101907effffffffffffffffffffffffffffffffffffffffffffffffffffffffffffff1916908160001a905350600a85611b8391906127e7565b9450611b01565b8093505050505b919050565b6000808273ffffffffffffffffffffffffffffffffffffffff163b119050919050565b828054611bc590612902565b90600052602060002090601f016020900481019282611be75760008555611c2e565b82601f10611c0057805160ff1916838001178555611c2e565b82800160010185558215611c2e579182015b82811115611c2d578251825591602001919060010190611c12565b5b509050611c3b9190611c3f565b5090565b5b80821115611c58576000816000905550600101611c40565b5090565b6000611c6f611c6a846126ec565b6126c7565b905082815260208101848484011115611c8b57611c8a612acf565b5b611c968482856128c0565b509392505050565b6000611cb1611cac8461271d565b6126c7565b905082815260208101848484011115611ccd57611ccc612acf565b5b611cd88482856128c0565b509392505050565b600081359050611cef81612fe5565b92915050565b600081359050611d0481612ffc565b92915050565b600081359050611d1981613013565b92915050565b600081519050611d2e81613013565b92915050565b600082601f830112611d4957611d48612aca565b5b8135611d59848260208601611c5c565b91505092915050565b600082601f830112611d7757611d76612aca565b5b8135611d87848260208601611c9e565b91505092915050565b600081359050611d9f8161302a565b92915050565b600060208284031215611dbb57611dba612ad9565b5b6000611dc984828501611ce0565b91505092915050565b60008060408385031215611de957611de8612ad9565b5b6000611df785828601611ce0565b9250506020611e0885828601611ce0565b9150509250929050565b600080600060608486031215611e2b57611e2a612ad9565b5b6000611e3986828701611ce0565b9350506020611e4a86828701611ce0565b9250506040611e5b86828701611d90565b9150509250925092565b60008060008060808587031215611e7f57611e7e612ad9565b5b6000611e8d87828801611ce0565b9450506020611e9e87828801611ce0565b9350506040611eaf87828801611d90565b925050606085013567ffffffffffffffff811115611ed057611ecf612ad4565b5b611edc87828801611d34565b91505092959194509250565b60008060408385031215611eff57611efe612ad9565b5b6000611f0d85828601611ce0565b9250506020611f1e85828601611cf5565b9150509250929050565b60008060408385031215611f3f57611f3e612ad9565b5b6000611f4d85828601611ce0565b9250506020611f5e85828601611d90565b9150509250929050565b600080600060608486031215611f8157611f80612ad9565b5b6000611f8f86828701611ce0565b9350506020611fa086828701611d90565b925050604084013567ffffffffffffffff811115611fc157611fc0612ad4565b5b611fcd86828701611d62565b9150509250925092565b600060208284031215611fed57611fec612ad9565b5b6000611ffb84828501611d0a565b91505092915050565b60006020828403121561201a57612019612ad9565b5b600061202884828501611d1f565b91505092915050565b60006020828403121561204757612046612ad9565b5b600061205584828501611d90565b91505092915050565b6120678161284c565b82525050565b6120768161285e565b82525050565b60006120878261274e565b6120918185612764565b93506120a18185602086016128cf565b6120aa81612ade565b840191505092915050565b60006120c082612759565b6120ca8185612775565b93506120da8185602086016128cf565b6120e381612ade565b840191505092915050565b60006120f982612759565b6121038185612786565b93506121138185602086016128cf565b80840191505092915050565b600061212c603283612775565b915061213782612aef565b604082019050919050565b600061214f602683612775565b915061215a82612b3e565b604082019050919050565b6000612172602583612775565b915061217d82612b8d565b604082019050919050565b6000612195601c83612775565b91506121a082612bdc565b602082019050919050565b60006121b8602483612775565b91506121c382612c05565b604082019050919050565b60006121db601983612775565b91506121e682612c54565b602082019050919050565b60006121fe602c83612775565b915061220982612c7d565b604082019050919050565b6000612221603883612775565b915061222c82612ccc565b604082019050919050565b6000612244602a83612775565b915061224f82612d1b565b604082019050919050565b6000612267602983612775565b915061227282612d6a565b604082019050919050565b600061228a602e83612775565b915061229582612db9565b604082019050919050565b60006122ad602083612775565b91506122b882612e08565b602082019050919050565b60006122d0603183612775565b91506122db82612e31565b604082019050919050565b60006122f3602c83612775565b91506122fe82612e80565b604082019050919050565b6000612316602083612775565b915061232182612ecf565b602082019050919050565b6000612339602f83612775565b915061234482612ef8565b604082019050919050565b600061235c602183612775565b915061236782612f47565b604082019050919050565b600061237f603183612775565b915061238a82612f96565b604082019050919050565b61239e816128b6565b82525050565b60006123b082856120ee565b91506123bc82846120ee565b91508190509392505050565b60006020820190506123dd600083018461205e565b92915050565b60006080820190506123f8600083018761205e565b612405602083018661205e565b6124126040830185612395565b8181036060830152612424818461207c565b905095945050505050565b6000602082019050612444600083018461206d565b92915050565b6000602082019050818103600083015261246481846120b5565b905092915050565b600060208201905081810360008301526124858161211f565b9050919050565b600060208201905081810360008301526124a581612142565b9050919050565b600060208201905081810360008301526124c581612165565b9050919050565b600060208201905081810360008301526124e581612188565b9050919050565b60006020820190508181036000830152612505816121ab565b9050919050565b60006020820190508181036000830152612525816121ce565b9050919050565b60006020820190508181036000830152612545816121f1565b9050919050565b6000602082019050818103600083015261256581612214565b9050919050565b6000602082019050818103600083015261258581612237565b9050919050565b600060208201905081810360008301526125a58161225a565b9050919050565b600060208201905081810360008301526125c58161227d565b9050919050565b600060208201905081810360008301526125e5816122a0565b9050919050565b60006020820190508181036000830152612605816122c3565b9050919050565b60006020820190508181036000830152612625816122e6565b9050919050565b6000602082019050818103600083015261264581612309565b9050919050565b600060208201905081810360008301526126658161232c565b9050919050565b600060208201905081810360008301526126858161234f565b9050919050565b600060208201905081810360008301526126a581612372565b9050919050565b60006020820190506126c16000830184612395565b92915050565b60006126d16126e2565b90506126dd8282612934565b919050565b6000604051905090565b600067ffffffffffffffff82111561270757612706612a9b565b5b61271082612ade565b9050602081019050919050565b600067ffffffffffffffff82111561273857612737612a9b565b5b61274182612ade565b9050602081019050919050565b600081519050919050565b600081519050919050565b600082825260208201905092915050565b600082825260208201905092915050565b600081905092915050565b600061279c826128b6565b91506127a7836128b6565b9250827fffffffffffffffffffffffffffffffffffffffffffffffffffffffffffffffff038211156127dc576127db6129df565b5b828201905092915050565b60006127f2826128b6565b91506127fd836128b6565b92508261280d5761280c612a0e565b5b828204905092915050565b6000612823826128b6565b915061282e836128b6565b925082821015612841576128406129df565b5b828203905092915050565b600061285782612896565b9050919050565b60008115159050919050565b60007fffffffff0000000000000000000000000000000000000000000000000000000082169050919050565b600073ffffffffffffffffffffffffffffffffffffffff82169050919050565b6000819050919050565b82818337600083830152505050565b60005b838110156128ed5780820151818401526020810190506128d2565b838111156128fc576000848401525b50505050565b6000600282049050600182168061291a57607f821691505b6020821081141561292e5761292d612a3d565b5b50919050565b61293d82612ade565b810181811067ffffffffffffffff8211171561295c5761295b612a9b565b5b80604052505050565b6000612970826128b6565b91507fffffffffffffffffffffffffffffffffffffffffffffffffffffffffffffffff8214156129a3576129a26129df565b5b600182019050919050565b60006129b9826128b6565b91506129c4836128b6565b9250826129d4576129d3612a0e565b5b828206905092915050565b7f4e487b7100000000000000000000000000000000000000000000000000000000600052601160045260246000fd5b7f4e487b7100000000000000000000000000000000000000000000000000000000600052601260045260246000fd5b7f4e487b7100000000000000000000000000000000000000000000000000000000600052602260045260246000fd5b7f4e487b7100000000000000000000000000000000000000000000000000000000600052603260045260246000fd5b7f4e487b7100000000000000000000000000000000000000000000000000000000600052604160045260246000fd5b600080fd5b600080fd5b600080fd5b600080fd5b6000601f19601f8301169050919050565b7f4552433732313a207472616e7366657220746f206e6f6e20455243373231526560008201527f63656976657220696d706c656d656e7465720000000000000000000000000000602082015250565b7f4f776e61626c653a206e6577206f776e657220697320746865207a65726f206160008201527f6464726573730000000000000000000000000000000000000000000000000000602082015250565b7f4552433732313a207472616e736665722066726f6d20696e636f72726563742060008201527f6f776e6572000000000000000000000000000000000000000000000000000000602082015250565b7f4552433732313a20746f6b656e20616c7265616479206d696e74656400000000600082015250565b7f4552433732313a207472616e7366657220746f20746865207a65726f2061646460008201527f7265737300000000000000000000000000000000000000000000000000000000602082015250565b7f4552433732313a20617070726f766520746f2063616c6c657200000000000000600082015250565b7f4552433732313a206f70657261746f7220717565727920666f72206e6f6e657860008201527f697374656e7420746f6b656e0000000000000000000000000000000000000000602082015250565b7f4552433732313a20617070726f76652063616c6c6572206973206e6f74206f7760008201527f6e6572206e6f7220617070726f76656420666f7220616c6c0000000000000000602082015250565b7f4552433732313a2062616c616e636520717565727920666f7220746865207a6560008201527f726f206164647265737300000000000000000000000000000000000000000000602082015250565b7f4552433732313a206f776e657220717565727920666f72206e6f6e657869737460008201527f656e7420746f6b656e0000000000000000000000000000000000000000000000602082015250565b7f45524337323155524953746f726167653a2055524920736574206f66206e6f6e60008201527f6578697374656e7420746f6b656e000000000000000000000000000000000000602082015250565b7f4552433732313a206d696e7420746f20746865207a65726f2061646472657373600082015250565b7f45524337323155524953746f726167653a2055524920717565727920666f722060008201527f6e6f6e6578697374656e7420746f6b656e000000000000000000000000000000602082015250565b7f4552433732313a20617070726f76656420717565727920666f72206e6f6e657860008201527f697374656e7420746f6b656e0000000000000000000000000000000000000000602082015250565b7f4f776e61626c653a2063616c6c6572206973206e6f7420746865206f776e6572600082015250565b7f4552433732314d657461646174613a2055524920717565727920666f72206e6f60008201527f6e6578697374656e7420746f6b656e0000000000000000000000000000000000602082015250565b7f4552433732313a20617070726f76616c20746f2063757272656e74206f776e6560008201527f7200000000000000000000000000000000000000000000000000000000000000602082015250565b7f4552433732313a207472616e736665722063616c6c6572206973206e6f74206f60008201527f776e6572206e6f7220617070726f766564000000000000000000000000000000602082015250565b612fee8161284c565b8114612ff957600080fd5b50565b6130058161285e565b811461301057600080fd5b50565b61301c8161286a565b811461302757600080fd5b50565b613033816128b6565b811461303e57600080fd5b5056fea2646970667358221220605863a3236f43adbc090abb3990e4dfa3c0020e392db1488c690ccf21107e3e64736f6c63430008070033a26469706673582212202c888d9e5e03430dd3ae19466e4448b09dd9b22034a9583d595ba9a514665ffd64736f6c63430008070033",
  "linkReferences": {},
  "deployedLinkReferences": {}
}