{
  "_format": "hh-sol-artifact-1",
  "contractName": "ERC721NFT",
  "sourceName": "contracts/ERC721NFT.sol",
  "abi": [
    {
      "inputs": [
        {
          "internalType": "string",
          "name": "_name",
          "type": "string"
        },
        {
          "internalType": "string",
          "name": "_symbol",
          "type": "string"
        }
      ],
      "stateMutability": "nonpayable",
      "type": "constructor"
    },
    {
      "anonymous": false,
      "inputs": [
        {
          "indexed": true,
          "internalType": "address",
          "name": "owner",
          "type": "address"
        },
        {
          "indexed": true,
          "internalType": "address",
          "name": "approved",
          "type": "address"
        },
        {
          "indexed": true,
          "internalType": "uint256",
          "name": "tokenId",
          "type": "uint256"
        }
      ],
      "name": "Approval",
      "type": "event"
    },
    {
      "anonymous": false,
      "inputs": [
        {
          "indexed": true,
          "internalType": "address",
          "name": "owner",
          "type": "address"
        },
        {
          "indexed": true,
          "internalType": "address",
          "name": "operator",
          "type": "address"
        },
        {
          "indexed": false,
          "internalType": "bool",
          "name": "approved",
          "type": "bool"
        }
      ],
      "name": "ApprovalForAll",
      "type": "event"
    },
    {
      "anonymous": false,
      "inputs": [
        {
          "indexed": true,
          "internalType": "address",
          "name": "previousOwner",
          "type": "address"
        },
        {
          "indexed": true,
          "internalType": "address",
          "name": "newOwner",
          "type": "address"
        }
      ],
      "name": "OwnershipTransferred",
      "type": "event"
    },
    {
      "anonymous": false,
      "inputs": [
        {
          "indexed": true,
          "internalType": "address",
          "name": "from",
          "type": "address"
        },
        {
          "indexed": true,
          "internalType": "address",
          "name": "to",
          "type": "address"
        },
        {
          "indexed": true,
          "internalType": "uint256",
          "name": "tokenId",
          "type": "uint256"
        }
      ],
      "name": "Transfer",
      "type": "event"
    },
    {
      "inputs": [
        {
          "internalType": "address",
          "name": "to",
          "type": "address"
        },
        {
          "internalType": "uint256",
          "name": "tokenId",
          "type": "uint256"
        }
      ],
      "name": "approve",
      "outputs": [],
      "stateMutability": "nonpayable",
      "type": "function"
    },
    {
      "inputs": [
        {
          "internalType": "address",
          "name": "owner",
          "type": "address"
        }
      ],
      "name": "balanceOf",
      "outputs": [
        {
          "internalType": "uint256",
          "name": "",
          "type": "uint256"
        }
      ],
      "stateMutability": "view",
      "type": "function"
    },
    {
      "inputs": [
        {
          "internalType": "uint256",
          "name": "tokenId",
          "type": "uint256"
        }
      ],
      "name": "getApproved",
      "outputs": [
        {
          "internalType": "address",
          "name": "",
          "type": "address"
        }
      ],
      "stateMutability": "view",
      "type": "function"
    },
    {
      "inputs": [
        {
          "internalType": "address",
          "name": "owner",
          "type": "address"
        },
        {
          "internalType": "address",
          "name": "operator",
          "type": "address"
        }
      ],
      "name": "isApprovedForAll",
      "outputs": [
        {
          "internalType": "bool",
          "name": "",
          "type": "bool"
        }
      ],
      "stateMutability": "view",
      "type": "function"
    },
    {
      "inputs": [
        {
          "internalType": "address",
          "name": "_to",
          "type": "address"
        },
        {
          "internalType": "uint256",
          "name": "_tokenId",
          "type": "uint256"
        },
        {
          "internalType": "string",
          "name": "_tokenURI",
          "type": "string"
        }
      ],
      "name": "mint",
      "outputs": [],
      "stateMutability": "payable",
      "type": "function"
    },
    {
      "inputs": [],
      "name": "name",
      "outputs": [
        {
          "internalType": "string",
          "name": "",
          "type": "string"
        }
      ],
      "stateMutability": "view",
      "type": "function"
    },
    {
      "inputs": [],
      "name": "owner",
      "outputs": [
        {
          "internalType": "address",
          "name": "",
          "type": "address"
        }
      ],
      "stateMutability": "view",
      "type": "function"
    },
    {
      "inputs": [
        {
          "internalType": "uint256",
          "name": "tokenId",
          "type": "uint256"
        }
      ],
      "name": "ownerOf",
      "outputs": [
        {
          "internalType": "address",
          "name": "",
          "type": "address"
        }
      ],
      "stateMutability": "view",
      "type": "function"
    },
    {
      "inputs": [],
      "name": "renounceOwnership",
      "outputs": [],
      "stateMutability": "nonpayable",
      "type": "function"
    },
    {
      "inputs": [
        {
          "internalType": "address",
          "name": "from",
          "type": "address"
        },
        {
          "internalType": "address",
          "name": "to",
          "type": "address"
        },
        {
          "internalType": "uint256",
          "name": "tokenId",
          "type": "uint256"
        }
      ],
      "name": "safeTransferFrom",
      "outputs": [],
      "stateMutability": "nonpayable",
      "type": "function"
    },
    {
      "inputs": [
        {
          "internalType": "address",
          "name": "from",
          "type": "address"
        },
        {
          "internalType": "address",
          "name": "to",
          "type": "address"
        },
        {
          "internalType": "uint256",
          "name": "tokenId",
          "type": "uint256"
        },
        {
          "internalType": "bytes",
          "name": "_data",
          "type": "bytes"
        }
      ],
      "name": "safeTransferFrom",
      "outputs": [],
      "stateMutability": "nonpayable",
      "type": "function"
    },
    {
      "inputs": [
        {
          "internalType": "address",
          "name": "operator",
          "type": "address"
        },
        {
          "internalType": "bool",
          "name": "approved",
          "type": "bool"
        }
      ],
      "name": "setApprovalForAll",
      "outputs": [],
      "stateMutability": "nonpayable",
      "type": "function"
    },
    {
      "inputs": [],
      "name": "supply",
      "outputs": [
        {
          "internalType": "uint256",
          "name": "",
          "type": "uint256"
        }
      ],
      "stateMutability": "view",
      "type": "function"
    },
    {
      "inputs": [
        {
          "internalType": "bytes4",
          "name": "interfaceId",
          "type": "bytes4"
        }
      ],
      "name": "supportsInterface",
      "outputs": [
        {
          "internalType": "bool",
          "name": "",
          "type": "bool"
        }
      ],
      "stateMutability": "view",
      "type": "function"
    },
    {
      "inputs": [],
      "name": "symbol",
      "outputs": [
        {
          "internalType": "string",
          "name": "",
          "type": "string"
        }
      ],
      "stateMutability": "view",
      "type": "function"
    },
    {
      "inputs": [
        {
          "internalType": "uint256",
          "name": "tokenId",
          "type": "uint256"
        }
      ],
      "name": "tokenURI",
      "outputs": [
        {
          "internalType": "string",
          "name": "",
          "type": "string"
        }
      ],
      "stateMutability": "view",
      "type": "function"
    },
    {
      "inputs": [
        {
          "internalType": "address",
          "name": "from",
          "type": "address"
        },
        {
          "internalType": "address",
          "name": "to",
          "type": "address"
        },
        {
          "internalType": "uint256",
          "name": "tokenId",
          "type": "uint256"
        }
      ],
      "name": "transferFrom",
      "outputs": [],
      "stateMutability": "nonpayable",
      "type": "function"
    },
    {
      "inputs": [
        {
          "internalType": "address",
          "name": "newOwner",
          "type": "address"
        }
      ],
      "name": "transferOwnership",
      "outputs": [],
      "stateMutability": "nonpayable",
      "type": "function"
    }
  ],
  "bytecode": "0x608060405260006008553480156200001657600080fd5b50604051620034bd380380620034bd83398181016040528101906200003c91906200028a565b818181600090805190602001906200005692919062000168565b5080600190805190602001906200006f92919062000168565b50505062000092620000866200009a60201b60201c565b620000a260201b60201c565b50506200046d565b600033905090565b6000600760009054906101000a900473ffffffffffffffffffffffffffffffffffffffff16905081600760006101000a81548173ffffffffffffffffffffffffffffffffffffffff021916908373ffffffffffffffffffffffffffffffffffffffff1602179055508173ffffffffffffffffffffffffffffffffffffffff168173ffffffffffffffffffffffffffffffffffffffff167f8be0079c531659141344cd1fd0a4f28419497f9722a3daafe3b4186f6b6457e060405160405180910390a35050565b828054620001769062000392565b90600052602060002090601f0160209004810192826200019a5760008555620001e6565b82601f10620001b557805160ff1916838001178555620001e6565b82800160010185558215620001e6579182015b82811115620001e5578251825591602001919060010190620001c8565b5b509050620001f59190620001f9565b5090565b5b8082111562000214576000816000905550600101620001fa565b5090565b60006200022f620002298462000326565b620002fd565b9050828152602081018484840111156200024857600080fd5b620002558482856200035c565b509392505050565b600082601f8301126200026f57600080fd5b81516200028184826020860162000218565b91505092915050565b600080604083850312156200029e57600080fd5b600083015167ffffffffffffffff811115620002b957600080fd5b620002c7858286016200025d565b925050602083015167ffffffffffffffff811115620002e557600080fd5b620002f3858286016200025d565b9150509250929050565b6000620003096200031c565b9050620003178282620003c8565b919050565b6000604051905090565b600067ffffffffffffffff8211156200034457620003436200042d565b5b6200034f826200045c565b9050602081019050919050565b60005b838110156200037c5780820151818401526020810190506200035f565b838111156200038c576000848401525b50505050565b60006002820490506001821680620003ab57607f821691505b60208210811415620003c257620003c1620003fe565b5b50919050565b620003d3826200045c565b810181811067ffffffffffffffff82111715620003f557620003f46200042d565b5b80604052505050565b7f4e487b7100000000000000000000000000000000000000000000000000000000600052602260045260246000fd5b7f4e487b7100000000000000000000000000000000000000000000000000000000600052604160045260246000fd5b6000601f19601f8301169050919050565b613040806200047d6000396000f3fe6080604052600436106101095760003560e01c8063715018a611610095578063b88d4fde11610064578063b88d4fde14610369578063c87b56dd14610392578063d3fc9864146103cf578063e985e9c5146103eb578063f2fde38b1461042857610109565b8063715018a6146102d35780638da5cb5b146102ea57806395d89b4114610315578063a22cb4651461034057610109565b8063095ea7b3116100dc578063095ea7b3146101de57806323b872dd1461020757806342842e0e146102305780636352211e1461025957806370a082311461029657610109565b806301ffc9a71461010e578063047fc9aa1461014b57806306fdde0314610176578063081812fc146101a1575b600080fd5b34801561011a57600080fd5b5061013560048036038101906101309190611fef565b610451565b604051610142919061243b565b60405180910390f35b34801561015757600080fd5b50610160610533565b60405161016d91906126b8565b60405180910390f35b34801561018257600080fd5b5061018b610539565b6040516101989190612456565b60405180910390f35b3480156101ad57600080fd5b506101c860048036038101906101c39190612041565b6105cb565b6040516101d591906123d4565b60405180910390f35b3480156101ea57600080fd5b5061020560048036038101906102009190611f4c565b610650565b005b34801561021357600080fd5b5061022e60048036038101906102299190611e46565b610768565b005b34801561023c57600080fd5b5061025760048036038101906102529190611e46565b6107c8565b005b34801561026557600080fd5b50610280600480360381019061027b9190612041565b6107e8565b60405161028d91906123d4565b60405180910390f35b3480156102a257600080fd5b506102bd60048036038101906102b89190611de1565b61089a565b6040516102ca91906126b8565b60405180910390f35b3480156102df57600080fd5b506102e8610952565b005b3480156102f657600080fd5b506102ff6109da565b60405161030c91906123d4565b60405180910390f35b34801561032157600080fd5b5061032a610a04565b6040516103379190612456565b60405180910390f35b34801561034c57600080fd5b5061036760048036038101906103629190611f10565b610a96565b005b34801561037557600080fd5b50610390600480360381019061038b9190611e95565b610aac565b005b34801561039e57600080fd5b506103b960048036038101906103b49190612041565b610b0e565b6040516103c69190612456565b60405180910390f35b6103e960048036038101906103e49190611f88565b610c60565b005b3480156103f757600080fd5b50610412600480360381019061040d9190611e0a565b610c91565b60405161041f919061243b565b60405180910390f35b34801561043457600080fd5b5061044f600480360381019061044a9190611de1565b610d25565b005b60007f80ac58cd000000000000000000000000000000000000000000000000000000007bffffffffffffffffffffffffffffffffffffffffffffffffffffffff1916827bffffffffffffffffffffffffffffffffffffffffffffffffffffffff1916148061051c57507f5b5e139f000000000000000000000000000000000000000000000000000000007bffffffffffffffffffffffffffffffffffffffffffffffffffffffff1916827bffffffffffffffffffffffffffffffffffffffffffffffffffffffff1916145b8061052c575061052b82610e1d565b5b9050919050565b60085481565b6060600080546105489061290e565b80601f01602080910402602001604051908101604052809291908181526020018280546105749061290e565b80156105c15780601f10610596576101008083540402835291602001916105c1565b820191906000526020600020905b8154815290600101906020018083116105a457829003601f168201915b5050505050905090565b60006105d682610e87565b610615576040517f08c379a000000000000000000000000000000000000000000000000000000000815260040161060c90612618565b60405180910390fd5b6004600083815260200190815260200160002060009054906101000a900473ffffffffffffffffffffffffffffffffffffffff169050919050565b600061065b826107e8565b90508073ffffffffffffffffffffffffffffffffffffffff168373ffffffffffffffffffffffffffffffffffffffff1614156106cc576040517f08c379a00000000000000000000000000000000000000000000000000000000081526004016106c390612678565b60405180910390fd5b8073ffffffffffffffffffffffffffffffffffffffff166106eb610ef3565b73ffffffffffffffffffffffffffffffffffffffff16148061071a575061071981610714610ef3565b610c91565b5b610759576040517f08c379a000000000000000000000000000000000000000000000000000000000815260040161075090612558565b60405180910390fd5b6107638383610efb565b505050565b610779610773610ef3565b82610fb4565b6107b8576040517f08c379a00000000000000000000000000000000000000000000000000000000081526004016107af90612698565b60405180910390fd5b6107c3838383611092565b505050565b6107e383838360405180602001604052806000815250610aac565b505050565b6000806002600084815260200190815260200160002060009054906101000a900473ffffffffffffffffffffffffffffffffffffffff169050600073ffffffffffffffffffffffffffffffffffffffff168173ffffffffffffffffffffffffffffffffffffffff161415610891576040517f08c379a000000000000000000000000000000000000000000000000000000000815260040161088890612598565b60405180910390fd5b80915050919050565b60008073ffffffffffffffffffffffffffffffffffffffff168273ffffffffffffffffffffffffffffffffffffffff16141561090b576040517f08c379a000000000000000000000000000000000000000000000000000000000815260040161090290612578565b60405180910390fd5b600360008373ffffffffffffffffffffffffffffffffffffffff1673ffffffffffffffffffffffffffffffffffffffff168152602001908152602001600020549050919050565b61095a610ef3565b73ffffffffffffffffffffffffffffffffffffffff166109786109da565b73ffffffffffffffffffffffffffffffffffffffff16146109ce576040517f08c379a00000000000000000000000000000000000000000000000000000000081526004016109c590612638565b60405180910390fd5b6109d860006112f9565b565b6000600760009054906101000a900473ffffffffffffffffffffffffffffffffffffffff16905090565b606060018054610a139061290e565b80601f0160208091040260200160405190810160405280929190818152602001828054610a3f9061290e565b8015610a8c5780601f10610a6157610100808354040283529160200191610a8c565b820191906000526020600020905b815481529060010190602001808311610a6f57829003601f168201915b5050505050905090565b610aa8610aa1610ef3565b83836113bf565b5050565b610abd610ab7610ef3565b83610fb4565b610afc576040517f08c379a0000000000000000000000000000000000000000000000000000000008152600401610af390612698565b60405180910390fd5b610b088484848461152c565b50505050565b6060610b1982610e87565b610b58576040517f08c379a0000000000000000000000000000000000000000000000000000000008152600401610b4f906125f8565b60405180910390fd5b6000600660008481526020019081526020016000208054610b789061290e565b80601f0160208091040260200160405190810160405280929190818152602001828054610ba49061290e565b8015610bf15780601f10610bc657610100808354040283529160200191610bf1565b820191906000526020600020905b815481529060010190602001808311610bd457829003601f168201915b505050505090506000610c02611588565b9050600081511415610c18578192505050610c5b565b600082511115610c4d578082604051602001610c359291906123b0565b60405160208183030381529060405292505050610c5b565b610c568461159f565b925050505b919050565b610c6a8383611646565b610c748282611820565b60086000815480929190610c8790612971565b9190505550505050565b6000600560008473ffffffffffffffffffffffffffffffffffffffff1673ffffffffffffffffffffffffffffffffffffffff16815260200190815260200160002060008373ffffffffffffffffffffffffffffffffffffffff1673ffffffffffffffffffffffffffffffffffffffff16815260200190815260200160002060009054906101000a900460ff16905092915050565b610d2d610ef3565b73ffffffffffffffffffffffffffffffffffffffff16610d4b6109da565b73ffffffffffffffffffffffffffffffffffffffff1614610da1576040517f08c379a0000000000000000000000000000000000000000000000000000000008152600401610d9890612638565b60405180910390fd5b600073ffffffffffffffffffffffffffffffffffffffff168173ffffffffffffffffffffffffffffffffffffffff161415610e11576040517f08c379a0000000000000000000000000000000000000000000000000000000008152600401610e0890612498565b60405180910390fd5b610e1a816112f9565b50565b60007f01ffc9a7000000000000000000000000000000000000000000000000000000007bffffffffffffffffffffffffffffffffffffffffffffffffffffffff1916827bffffffffffffffffffffffffffffffffffffffffffffffffffffffff1916149050919050565b60008073ffffffffffffffffffffffffffffffffffffffff166002600084815260200190815260200160002060009054906101000a900473ffffffffffffffffffffffffffffffffffffffff1673ffffffffffffffffffffffffffffffffffffffff1614159050919050565b600033905090565b816004600083815260200190815260200160002060006101000a81548173ffffffffffffffffffffffffffffffffffffffff021916908373ffffffffffffffffffffffffffffffffffffffff160217905550808273ffffffffffffffffffffffffffffffffffffffff16610f6e836107e8565b73ffffffffffffffffffffffffffffffffffffffff167f8c5be1e5ebec7d5bd14f71427d1e84f3dd0314c0f7b2291e5b200ac8c7c3b92560405160405180910390a45050565b6000610fbf82610e87565b610ffe576040517f08c379a0000000000000000000000000000000000000000000000000000000008152600401610ff590612538565b60405180910390fd5b6000611009836107e8565b90508073ffffffffffffffffffffffffffffffffffffffff168473ffffffffffffffffffffffffffffffffffffffff16148061104b575061104a8185610c91565b5b8061108957508373ffffffffffffffffffffffffffffffffffffffff16611071846105cb565b73ffffffffffffffffffffffffffffffffffffffff16145b91505092915050565b8273ffffffffffffffffffffffffffffffffffffffff166110b2826107e8565b73ffffffffffffffffffffffffffffffffffffffff1614611108576040517f08c379a00000000000000000000000000000000000000000000000000000000081526004016110ff906124b8565b60405180910390fd5b600073ffffffffffffffffffffffffffffffffffffffff168273ffffffffffffffffffffffffffffffffffffffff161415611178576040517f08c379a000000000000000000000000000000000000000000000000000000000815260040161116f906124f8565b60405180910390fd5b611183838383611894565b61118e600082610efb565b6001600360008573ffffffffffffffffffffffffffffffffffffffff1673ffffffffffffffffffffffffffffffffffffffff16815260200190815260200160002060008282546111de9190612824565b925050819055506001600360008473ffffffffffffffffffffffffffffffffffffffff1673ffffffffffffffffffffffffffffffffffffffff1681526020019081526020016000206000828254611235919061279d565b92505081905550816002600083815260200190815260200160002060006101000a81548173ffffffffffffffffffffffffffffffffffffffff021916908373ffffffffffffffffffffffffffffffffffffffff160217905550808273ffffffffffffffffffffffffffffffffffffffff168473ffffffffffffffffffffffffffffffffffffffff167fddf252ad1be2c89b69c2b068fc378daa952ba7f163c4a11628f55a4df523b3ef60405160405180910390a46112f4838383611899565b505050565b6000600760009054906101000a900473ffffffffffffffffffffffffffffffffffffffff16905081600760006101000a81548173ffffffffffffffffffffffffffffffffffffffff021916908373ffffffffffffffffffffffffffffffffffffffff1602179055508173ffffffffffffffffffffffffffffffffffffffff168173ffffffffffffffffffffffffffffffffffffffff167f8be0079c531659141344cd1fd0a4f28419497f9722a3daafe3b4186f6b6457e060405160405180910390a35050565b8173ffffffffffffffffffffffffffffffffffffffff168373ffffffffffffffffffffffffffffffffffffffff16141561142e576040517f08c379a000000000000000000000000000000000000000000000000000000000815260040161142590612518565b60405180910390fd5b80600560008573ffffffffffffffffffffffffffffffffffffffff1673ffffffffffffffffffffffffffffffffffffffff16815260200190815260200160002060008473ffffffffffffffffffffffffffffffffffffffff1673ffffffffffffffffffffffffffffffffffffffff16815260200190815260200160002060006101000a81548160ff0219169083151502179055508173ffffffffffffffffffffffffffffffffffffffff168373ffffffffffffffffffffffffffffffffffffffff167f17307eab39ab6107e8899845ad3d59bd9653f200f220920489ca2b5937696c318360405161151f919061243b565b60405180910390a3505050565b611537848484611092565b6115438484848461189e565b611582576040517f08c379a000000000000000000000000000000000000000000000000000000000815260040161157990612478565b60405180910390fd5b50505050565b606060405180602001604052806000815250905090565b60606115aa82610e87565b6115e9576040517f08c379a00000000000000000000000000000000000000000000000000000000081526004016115e090612658565b60405180910390fd5b60006115f3611588565b90506000815111611613576040518060200160405280600081525061163e565b8061161d84611a35565b60405160200161162e9291906123b0565b6040516020818303038152906040525b915050919050565b600073ffffffffffffffffffffffffffffffffffffffff168273ffffffffffffffffffffffffffffffffffffffff1614156116b6576040517f08c379a00000000000000000000000000000000000000000000000000000000081526004016116ad906125d8565b60405180910390fd5b6116bf81610e87565b156116ff576040517f08c379a00000000000000000000000000000000000000000000000000000000081526004016116f6906124d8565b60405180910390fd5b61170b60008383611894565b6001600360008473ffffffffffffffffffffffffffffffffffffffff1673ffffffffffffffffffffffffffffffffffffffff168152602001908152602001600020600082825461175b919061279d565b92505081905550816002600083815260200190815260200160002060006101000a81548173ffffffffffffffffffffffffffffffffffffffff021916908373ffffffffffffffffffffffffffffffffffffffff160217905550808273ffffffffffffffffffffffffffffffffffffffff16600073ffffffffffffffffffffffffffffffffffffffff167fddf252ad1be2c89b69c2b068fc378daa952ba7f163c4a11628f55a4df523b3ef60405160405180910390a461181c60008383611899565b5050565b61182982610e87565b611868576040517f08c379a000000000000000000000000000000000000000000000000000000000815260040161185f906125b8565b60405180910390fd5b8060066000848152602001908152602001600020908051906020019061188f929190611c05565b505050565b505050565b505050565b60006118bf8473ffffffffffffffffffffffffffffffffffffffff16611be2565b15611a28578373ffffffffffffffffffffffffffffffffffffffff1663150b7a026118e8610ef3565b8786866040518563ffffffff1660e01b815260040161190a94939291906123ef565b602060405180830381600087803b15801561192457600080fd5b505af192505050801561195557506040513d601f19601f820116820180604052508101906119529190612018565b60015b6119d8573d8060008114611985576040519150601f19603f3d011682016040523d82523d6000602084013e61198a565b606091505b506000815114156119d0576040517f08c379a00000000000000000000000000000000000000000000000000000000081526004016119c790612478565b60405180910390fd5b805181602001fd5b63150b7a0260e01b7bffffffffffffffffffffffffffffffffffffffffffffffffffffffff1916817bffffffffffffffffffffffffffffffffffffffffffffffffffffffff191614915050611a2d565b600190505b949350505050565b60606000821415611a7d576040518060400160405280600181526020017f30000000000000000000000000000000000000000000000000000000000000008152509050611bdd565b600082905060005b60008214611aaf578080611a9890612971565b915050600a82611aa891906127f3565b9150611a85565b60008167ffffffffffffffff811115611af1577f4e487b7100000000000000000000000000000000000000000000000000000000600052604160045260246000fd5b6040519080825280601f01601f191660200182016040528015611b235781602001600182028036833780820191505090505b5090505b60008514611bd657600182611b3c9190612824565b9150600a85611b4b91906129ba565b6030611b57919061279d565b60f81b818381518110611b93577f4e487b7100000000000000000000000000000000000000000000000000000000600052603260045260246000fd5b60200101907effffffffffffffffffffffffffffffffffffffffffffffffffffffffffffff1916908160001a905350600a85611bcf91906127f3565b9450611b27565b8093505050505b919050565b6000808273ffffffffffffffffffffffffffffffffffffffff163b119050919050565b828054611c119061290e565b90600052602060002090601f016020900481019282611c335760008555611c7a565b82601f10611c4c57805160ff1916838001178555611c7a565b82800160010185558215611c7a579182015b82811115611c79578251825591602001919060010190611c5e565b5b509050611c879190611c8b565b5090565b5b80821115611ca4576000816000905550600101611c8c565b5090565b6000611cbb611cb6846126f8565b6126d3565b905082815260208101848484011115611cd357600080fd5b611cde8482856128cc565b509392505050565b6000611cf9611cf484612729565b6126d3565b905082815260208101848484011115611d1157600080fd5b611d1c8482856128cc565b509392505050565b600081359050611d3381612fae565b92915050565b600081359050611d4881612fc5565b92915050565b600081359050611d5d81612fdc565b92915050565b600081519050611d7281612fdc565b92915050565b600082601f830112611d8957600080fd5b8135611d99848260208601611ca8565b91505092915050565b600082601f830112611db357600080fd5b8135611dc3848260208601611ce6565b91505092915050565b600081359050611ddb81612ff3565b92915050565b600060208284031215611df357600080fd5b6000611e0184828501611d24565b91505092915050565b60008060408385031215611e1d57600080fd5b6000611e2b85828601611d24565b9250506020611e3c85828601611d24565b9150509250929050565b600080600060608486031215611e5b57600080fd5b6000611e6986828701611d24565b9350506020611e7a86828701611d24565b9250506040611e8b86828701611dcc565b9150509250925092565b60008060008060808587031215611eab57600080fd5b6000611eb987828801611d24565b9450506020611eca87828801611d24565b9350506040611edb87828801611dcc565b925050606085013567ffffffffffffffff811115611ef857600080fd5b611f0487828801611d78565b91505092959194509250565b60008060408385031215611f2357600080fd5b6000611f3185828601611d24565b9250506020611f4285828601611d39565b9150509250929050565b60008060408385031215611f5f57600080fd5b6000611f6d85828601611d24565b9250506020611f7e85828601611dcc565b9150509250929050565b600080600060608486031215611f9d57600080fd5b6000611fab86828701611d24565b9350506020611fbc86828701611dcc565b925050604084013567ffffffffffffffff811115611fd957600080fd5b611fe586828701611da2565b9150509250925092565b60006020828403121561200157600080fd5b600061200f84828501611d4e565b91505092915050565b60006020828403121561202a57600080fd5b600061203884828501611d63565b91505092915050565b60006020828403121561205357600080fd5b600061206184828501611dcc565b91505092915050565b61207381612858565b82525050565b6120828161286a565b82525050565b60006120938261275a565b61209d8185612770565b93506120ad8185602086016128db565b6120b681612aa7565b840191505092915050565b60006120cc82612765565b6120d68185612781565b93506120e68185602086016128db565b6120ef81612aa7565b840191505092915050565b600061210582612765565b61210f8185612792565b935061211f8185602086016128db565b80840191505092915050565b6000612138603283612781565b915061214382612ab8565b604082019050919050565b600061215b602683612781565b915061216682612b07565b604082019050919050565b600061217e602583612781565b915061218982612b56565b604082019050919050565b60006121a1601c83612781565b91506121ac82612ba5565b602082019050919050565b60006121c4602483612781565b91506121cf82612bce565b604082019050919050565b60006121e7601983612781565b91506121f282612c1d565b602082019050919050565b600061220a602c83612781565b915061221582612c46565b604082019050919050565b600061222d603883612781565b915061223882612c95565b604082019050919050565b6000612250602a83612781565b915061225b82612ce4565b604082019050919050565b6000612273602983612781565b915061227e82612d33565b604082019050919050565b6000612296602e83612781565b91506122a182612d82565b604082019050919050565b60006122b9602083612781565b91506122c482612dd1565b602082019050919050565b60006122dc603183612781565b91506122e782612dfa565b604082019050919050565b60006122ff602c83612781565b915061230a82612e49565b604082019050919050565b6000612322602083612781565b915061232d82612e98565b602082019050919050565b6000612345602f83612781565b915061235082612ec1565b604082019050919050565b6000612368602183612781565b915061237382612f10565b604082019050919050565b600061238b603183612781565b915061239682612f5f565b604082019050919050565b6123aa816128c2565b82525050565b60006123bc82856120fa565b91506123c882846120fa565b91508190509392505050565b60006020820190506123e9600083018461206a565b92915050565b6000608082019050612404600083018761206a565b612411602083018661206a565b61241e60408301856123a1565b81810360608301526124308184612088565b905095945050505050565b60006020820190506124506000830184612079565b92915050565b6000602082019050818103600083015261247081846120c1565b905092915050565b600060208201905081810360008301526124918161212b565b9050919050565b600060208201905081810360008301526124b18161214e565b9050919050565b600060208201905081810360008301526124d181612171565b9050919050565b600060208201905081810360008301526124f181612194565b9050919050565b60006020820190508181036000830152612511816121b7565b9050919050565b60006020820190508181036000830152612531816121da565b9050919050565b60006020820190508181036000830152612551816121fd565b9050919050565b6000602082019050818103600083015261257181612220565b9050919050565b6000602082019050818103600083015261259181612243565b9050919050565b600060208201905081810360008301526125b181612266565b9050919050565b600060208201905081810360008301526125d181612289565b9050919050565b600060208201905081810360008301526125f1816122ac565b9050919050565b60006020820190508181036000830152612611816122cf565b9050919050565b60006020820190508181036000830152612631816122f2565b9050919050565b6000602082019050818103600083015261265181612315565b9050919050565b6000602082019050818103600083015261267181612338565b9050919050565b600060208201905081810360008301526126918161235b565b9050919050565b600060208201905081810360008301526126b18161237e565b9050919050565b60006020820190506126cd60008301846123a1565b92915050565b60006126dd6126ee565b90506126e98282612940565b919050565b6000604051905090565b600067ffffffffffffffff82111561271357612712612a78565b5b61271c82612aa7565b9050602081019050919050565b600067ffffffffffffffff82111561274457612743612a78565b5b61274d82612aa7565b9050602081019050919050565b600081519050919050565b600081519050919050565b600082825260208201905092915050565b600082825260208201905092915050565b600081905092915050565b60006127a8826128c2565b91506127b3836128c2565b9250827fffffffffffffffffffffffffffffffffffffffffffffffffffffffffffffffff038211156127e8576127e76129eb565b5b828201905092915050565b60006127fe826128c2565b9150612809836128c2565b92508261281957612818612a1a565b5b828204905092915050565b600061282f826128c2565b915061283a836128c2565b92508282101561284d5761284c6129eb565b5b828203905092915050565b6000612863826128a2565b9050919050565b60008115159050919050565b60007fffffffff0000000000000000000000000000000000000000000000000000000082169050919050565b600073ffffffffffffffffffffffffffffffffffffffff82169050919050565b6000819050919050565b82818337600083830152505050565b60005b838110156128f95780820151818401526020810190506128de565b83811115612908576000848401525b50505050565b6000600282049050600182168061292657607f821691505b6020821081141561293a57612939612a49565b5b50919050565b61294982612aa7565b810181811067ffffffffffffffff8211171561296857612967612a78565b5b80604052505050565b600061297c826128c2565b91507fffffffffffffffffffffffffffffffffffffffffffffffffffffffffffffffff8214156129af576129ae6129eb565b5b600182019050919050565b60006129c5826128c2565b91506129d0836128c2565b9250826129e0576129df612a1a565b5b828206905092915050565b7f4e487b7100000000000000000000000000000000000000000000000000000000600052601160045260246000fd5b7f4e487b7100000000000000000000000000000000000000000000000000000000600052601260045260246000fd5b7f4e487b7100000000000000000000000000000000000000000000000000000000600052602260045260246000fd5b7f4e487b7100000000000000000000000000000000000000000000000000000000600052604160045260246000fd5b6000601f19601f8301169050919050565b7f4552433732313a207472616e7366657220746f206e6f6e20455243373231526560008201527f63656976657220696d706c656d656e7465720000000000000000000000000000602082015250565b7f4f776e61626c653a206e6577206f776e657220697320746865207a65726f206160008201527f6464726573730000000000000000000000000000000000000000000000000000602082015250565b7f4552433732313a207472616e736665722066726f6d20696e636f72726563742060008201527f6f776e6572000000000000000000000000000000000000000000000000000000602082015250565b7f4552433732313a20746f6b656e20616c7265616479206d696e74656400000000600082015250565b7f4552433732313a207472616e7366657220746f20746865207a65726f2061646460008201527f7265737300000000000000000000000000000000000000000000000000000000602082015250565b7f4552433732313a20617070726f766520746f2063616c6c657200000000000000600082015250565b7f4552433732313a206f70657261746f7220717565727920666f72206e6f6e657860008201527f697374656e7420746f6b656e0000000000000000000000000000000000000000602082015250565b7f4552433732313a20617070726f76652063616c6c6572206973206e6f74206f7760008201527f6e6572206e6f7220617070726f76656420666f7220616c6c0000000000000000602082015250565b7f4552433732313a2062616c616e636520717565727920666f7220746865207a6560008201527f726f206164647265737300000000000000000000000000000000000000000000602082015250565b7f4552433732313a206f776e657220717565727920666f72206e6f6e657869737460008201527f656e7420746f6b656e0000000000000000000000000000000000000000000000602082015250565b7f45524337323155524953746f726167653a2055524920736574206f66206e6f6e60008201527f6578697374656e7420746f6b656e000000000000000000000000000000000000602082015250565b7f4552433732313a206d696e7420746f20746865207a65726f2061646472657373600082015250565b7f45524337323155524953746f726167653a2055524920717565727920666f722060008201527f6e6f6e6578697374656e7420746f6b656e000000000000000000000000000000602082015250565b7f4552433732313a20617070726f76656420717565727920666f72206e6f6e657860008201527f697374656e7420746f6b656e0000000000000000000000000000000000000000602082015250565b7f4f776e61626c653a2063616c6c6572206973206e6f7420746865206f776e6572600082015250565b7f4552433732314d657461646174613a2055524920717565727920666f72206e6f60008201527f6e6578697374656e7420746f6b656e0000000000000000000000000000000000602082015250565b7f4552433732313a20617070726f76616c20746f2063757272656e74206f776e6560008201527f7200000000000000000000000000000000000000000000000000000000000000602082015250565b7f4552433732313a207472616e736665722063616c6c6572206973206e6f74206f60008201527f776e6572206e6f7220617070726f766564000000000000000000000000000000602082015250565b612fb781612858565b8114612fc257600080fd5b50565b612fce8161286a565b8114612fd957600080fd5b50565b612fe581612876565b8114612ff057600080fd5b50565b612ffc816128c2565b811461300757600080fd5b5056fea2646970667358221220346aee54359ead73f79ec515354239e2ea410fbca568df626101ecf3697ffe6864736f6c63430008030033",
  "linkReferences": {},
  "deployedLinkReferences": {}
}